{
  "_format": "hh-sol-artifact-1",
  "contractName": "CareChain",
  "sourceName": "contracts/CareChain.sol",
  "abi": [
    {
      "anonymous": false,
      "inputs": [
        {
          "indexed": true,
          "internalType": "address",
          "name": "accessor",
          "type": "address"
        },
        {
          "indexed": true,
          "internalType": "uint256",
          "name": "recordId",
          "type": "uint256"
        },
        {
          "indexed": false,
          "internalType": "uint256",
          "name": "tier",
          "type": "uint256"
        },
        {
          "indexed": false,
          "internalType": "uint256",
          "name": "time",
          "type": "uint256"
        }
      ],
      "name": "AccessLogged",
      "type": "event"
    },
    {
      "anonymous": false,
      "inputs": [
        {
          "indexed": true,
          "internalType": "uint256",
          "name": "recordId",
          "type": "uint256"
        },
        {
          "indexed": true,
          "internalType": "address",
          "name": "grantee",
          "type": "address"
        }
      ],
      "name": "ConsentGiven",
      "type": "event"
    },
    {
      "anonymous": false,
      "inputs": [
        {
          "indexed": true,
          "internalType": "uint256",
          "name": "recordId",
          "type": "uint256"
        },
        {
          "indexed": true,
          "internalType": "address",
          "name": "requester",
          "type": "address"
        }
      ],
      "name": "ConsentRequested",
      "type": "event"
    },
    {
      "anonymous": false,
      "inputs": [
        {
          "indexed": true,
          "internalType": "uint256",
          "name": "recordId",
          "type": "uint256"
        },
        {
          "indexed": true,
          "internalType": "address",
          "name": "grantee",
          "type": "address"
        }
      ],
      "name": "ConsentRevoked",
      "type": "event"
    },
    {
      "anonymous": false,
      "inputs": [
        {
          "indexed": true,
          "internalType": "address",
          "name": "doctor",
          "type": "address"
        },
        {
          "indexed": false,
          "internalType": "string",
          "name": "name",
          "type": "string"
        },
        {
          "indexed": false,
          "internalType": "uint256",
          "name": "hospitalId",
          "type": "uint256"
        }
      ],
      "name": "DoctorRegistered",
      "type": "event"
    },
    {
      "anonymous": false,
      "inputs": [
        {
          "indexed": true,
          "internalType": "address",
          "name": "doctor",
          "type": "address"
        },
        {
          "indexed": true,
          "internalType": "uint256",
          "name": "recordId",
          "type": "uint256"
        },
        {
          "indexed": false,
          "internalType": "uint256",
          "name": "expiry",
          "type": "uint256"
        }
      ],
      "name": "EmergencyAccessGranted",
      "type": "event"
    },
    {
      "anonymous": false,
      "inputs": [
        {
          "indexed": true,
          "internalType": "uint256",
          "name": "hospitalId",
          "type": "uint256"
        },
        {
          "indexed": false,
          "internalType": "string",
          "name": "name",
          "type": "string"
        },
        {
          "indexed": false,
          "internalType": "address",
          "name": "admin",
          "type": "address"
        }
      ],
      "name": "HospitalRegistered",
      "type": "event"
    },
    {
      "anonymous": false,
      "inputs": [
        {
          "indexed": true,
          "internalType": "address",
          "name": "patient",
          "type": "address"
        },
        {
          "indexed": false,
          "internalType": "string",
          "name": "name",
          "type": "string"
        },
        {
          "indexed": false,
          "internalType": "uint256",
          "name": "hospitalId",
          "type": "uint256"
        }
      ],
      "name": "PatientRegistered",
      "type": "event"
    },
    {
      "anonymous": false,
      "inputs": [
        {
          "indexed": true,
          "internalType": "uint256",
          "name": "recordId",
          "type": "uint256"
        },
        {
          "indexed": true,
          "internalType": "address",
          "name": "patient",
          "type": "address"
        },
        {
          "indexed": false,
          "internalType": "uint256",
          "name": "hospitalId",
          "type": "uint256"
        },
        {
          "indexed": false,
          "internalType": "string",
          "name": "ipfsHash",
          "type": "string"
        }
      ],
      "name": "RecordUploaded",
      "type": "event"
    },
    {
      "anonymous": false,
      "inputs": [
        {
          "indexed": true,
          "internalType": "address",
          "name": "stakeholder",
          "type": "address"
        },
        {
          "indexed": false,
          "internalType": "string",
          "name": "name",
          "type": "string"
        }
      ],
      "name": "StakeholderRegistered",
      "type": "event"
    },
    {
      "inputs": [
        {
          "internalType": "uint256",
          "name": "",
          "type": "uint256"
        },
        {
          "internalType": "uint256",
          "name": "",
          "type": "uint256"
        }
      ],
      "name": "accessLogs",
      "outputs": [
        {
          "internalType": "address",
          "name": "accessor",
          "type": "address"
        },
        {
          "internalType": "uint256",
          "name": "recordId",
          "type": "uint256"
        },
        {
          "internalType": "uint256",
          "name": "tier",
          "type": "uint256"
        },
        {
          "internalType": "uint256",
          "name": "time",
          "type": "uint256"
        }
      ],
      "stateMutability": "view",
      "type": "function"
    },
    {
      "inputs": [
        {
          "internalType": "uint256",
          "name": "_recordId",
          "type": "uint256"
        }
      ],
      "name": "accessRecord",
      "outputs": [
        {
          "internalType": "string",
          "name": "ipfsHash",
          "type": "string"
        },
        {
          "internalType": "uint256",
          "name": "hospitalId",
          "type": "uint256"
        },
        {
          "internalType": "uint256",
          "name": "timestamp",
          "type": "uint256"
        }
      ],
      "stateMutability": "nonpayable",
      "type": "function"
    },
    {
      "inputs": [
        {
          "internalType": "uint256",
          "name": "",
          "type": "uint256"
        },
        {
          "internalType": "address",
          "name": "",
          "type": "address"
        }
      ],
      "name": "consentGiven",
      "outputs": [
        {
          "internalType": "bool",
          "name": "",
          "type": "bool"
        }
      ],
      "stateMutability": "view",
      "type": "function"
    },
    {
      "inputs": [
        {
          "internalType": "uint256",
          "name": "",
          "type": "uint256"
        },
        {
          "internalType": "address",
          "name": "",
          "type": "address"
        }
      ],
      "name": "consentRequested",
      "outputs": [
        {
          "internalType": "bool",
          "name": "",
          "type": "bool"
        }
      ],
      "stateMutability": "view",
      "type": "function"
    },
    {
      "inputs": [
        {
          "internalType": "address",
          "name": "",
          "type": "address"
        },
        {
          "internalType": "uint256",
          "name": "",
          "type": "uint256"
        }
      ],
      "name": "emergencyAccess",
      "outputs": [
        {
          "internalType": "uint256",
          "name": "",
          "type": "uint256"
        }
      ],
      "stateMutability": "view",
      "type": "function"
    },
    {
      "inputs": [
        {
          "internalType": "uint256",
          "name": "_recordId",
          "type": "uint256"
        }
      ],
      "name": "getAccessLogs",
      "outputs": [
        {
          "components": [
            {
              "internalType": "address",
              "name": "accessor",
              "type": "address"
            },
            {
              "internalType": "uint256",
              "name": "recordId",
              "type": "uint256"
            },
            {
              "internalType": "uint256",
              "name": "tier",
              "type": "uint256"
            },
            {
              "internalType": "uint256",
              "name": "time",
              "type": "uint256"
            }
          ],
          "internalType": "struct CareChain.AccessLog[]",
          "name": "",
          "type": "tuple[]"
        }
      ],
      "stateMutability": "view",
      "type": "function"
    },
    {
      "inputs": [
        {
          "internalType": "uint256",
          "name": "_hospitalId",
          "type": "uint256"
        }
      ],
      "name": "getHospitalPatients",
      "outputs": [
        {
          "internalType": "address[]",
          "name": "",
          "type": "address[]"
        }
      ],
      "stateMutability": "view",
      "type": "function"
    },
    {
      "inputs": [
        {
          "internalType": "address",
          "name": "_patient",
          "type": "address"
        }
      ],
      "name": "getPatientRecords",
      "outputs": [
        {
          "internalType": "uint256[]",
          "name": "",
          "type": "uint256[]"
        }
      ],
      "stateMutability": "view",
      "type": "function"
    },
    {
      "inputs": [
        {
          "internalType": "uint256",
          "name": "_recordId",
          "type": "uint256"
        }
      ],
      "name": "getRecord",
      "outputs": [
        {
          "internalType": "string",
          "name": "ipfsHash",
          "type": "string"
        },
        {
          "internalType": "uint256",
          "name": "hospitalId",
          "type": "uint256"
        },
        {
          "internalType": "uint256",
          "name": "timestamp",
          "type": "uint256"
        }
      ],
      "stateMutability": "view",
      "type": "function"
    },
    {
      "inputs": [
        {
          "internalType": "uint256",
          "name": "_recordId",
          "type": "uint256"
        },
        {
          "internalType": "address",
          "name": "_grantee",
          "type": "address"
        }
      ],
      "name": "giveConsent",
      "outputs": [],
      "stateMutability": "nonpayable",
      "type": "function"
    },
    {
      "inputs": [],
      "name": "hospitalCounter",
      "outputs": [
        {
          "internalType": "uint256",
          "name": "",
          "type": "uint256"
        }
      ],
      "stateMutability": "view",
      "type": "function"
    },
    {
      "inputs": [
        {
          "internalType": "uint256",
          "name": "",
          "type": "uint256"
        },
        {
          "internalType": "uint256",
          "name": "",
          "type": "uint256"
        }
      ],
      "name": "hospitalPatients",
      "outputs": [
        {
          "internalType": "address",
          "name": "",
          "type": "address"
        }
      ],
      "stateMutability": "view",
      "type": "function"
    },
    {
      "inputs": [
        {
          "internalType": "uint256",
          "name": "",
          "type": "uint256"
        }
      ],
      "name": "hospitals",
      "outputs": [
        {
          "internalType": "uint256",
          "name": "id",
          "type": "uint256"
        },
        {
          "internalType": "string",
          "name": "name",
          "type": "string"
        },
        {
          "internalType": "address",
          "name": "admin",
          "type": "address"
        }
      ],
      "stateMutability": "view",
      "type": "function"
    },
    {
      "inputs": [
        {
          "internalType": "address",
          "name": "",
          "type": "address"
        },
        {
          "internalType": "uint256",
          "name": "",
          "type": "uint256"
        }
      ],
      "name": "patientRecords",
      "outputs": [
        {
          "internalType": "uint256",
          "name": "",
          "type": "uint256"
        }
      ],
      "stateMutability": "view",
      "type": "function"
    },
    {
      "inputs": [],
      "name": "recordCounter",
      "outputs": [
        {
          "internalType": "uint256",
          "name": "",
          "type": "uint256"
        }
      ],
      "stateMutability": "view",
      "type": "function"
    },
    {
      "inputs": [
        {
          "internalType": "uint256",
          "name": "",
          "type": "uint256"
        }
      ],
      "name": "records",
      "outputs": [
        {
          "internalType": "uint256",
          "name": "id",
          "type": "uint256"
        },
        {
          "internalType": "address",
          "name": "patient",
          "type": "address"
        },
        {
          "internalType": "uint256",
          "name": "hospitalId",
          "type": "uint256"
        },
        {
          "internalType": "string",
          "name": "ipfsHash",
          "type": "string"
        },
        {
          "internalType": "uint256",
          "name": "timestamp",
          "type": "uint256"
        }
      ],
      "stateMutability": "view",
      "type": "function"
    },
    {
      "inputs": [
        {
          "internalType": "string",
          "name": "_name",
          "type": "string"
        },
        {
          "internalType": "uint256",
          "name": "_hospitalId",
          "type": "uint256"
        }
      ],
      "name": "registerDoctor",
      "outputs": [],
      "stateMutability": "nonpayable",
      "type": "function"
    },
    {
      "inputs": [
        {
          "internalType": "string",
          "name": "_name",
          "type": "string"
        }
      ],
      "name": "registerHospital",
      "outputs": [],
      "stateMutability": "nonpayable",
      "type": "function"
    },
    {
      "inputs": [
        {
          "internalType": "string",
          "name": "_name",
          "type": "string"
        },
        {
          "internalType": "uint256",
          "name": "_age",
          "type": "uint256"
        },
        {
          "internalType": "string",
          "name": "_gender",
          "type": "string"
        },
        {
          "internalType": "uint256",
          "name": "_hospitalId",
          "type": "uint256"
        }
      ],
      "name": "registerPatient",
      "outputs": [],
      "stateMutability": "nonpayable",
      "type": "function"
    },
    {
      "inputs": [
        {
          "internalType": "string",
          "name": "_name",
          "type": "string"
        }
      ],
      "name": "registerStakeholder",
      "outputs": [],
      "stateMutability": "nonpayable",
      "type": "function"
    },
    {
      "inputs": [
        {
          "internalType": "uint256",
          "name": "_recordId",
          "type": "uint256"
        }
      ],
      "name": "requestConsent",
      "outputs": [],
      "stateMutability": "nonpayable",
      "type": "function"
    },
    {
      "inputs": [
        {
          "internalType": "uint256",
          "name": "_recordId",
          "type": "uint256"
        }
      ],
      "name": "requestEmergencyAccess",
      "outputs": [],
      "stateMutability": "nonpayable",
      "type": "function"
    },
    {
      "inputs": [
        {
          "internalType": "uint256",
          "name": "_recordId",
          "type": "uint256"
        },
        {
          "internalType": "address",
          "name": "_grantee",
          "type": "address"
        }
      ],
      "name": "revokeConsent",
      "outputs": [],
      "stateMutability": "nonpayable",
      "type": "function"
    },
    {
      "inputs": [
        {
          "internalType": "uint256",
          "name": "_recordId",
          "type": "uint256"
        },
        {
          "internalType": "address",
          "name": "_doctor",
          "type": "address"
        }
      ],
      "name": "revokeEmergencyAccess",
      "outputs": [],
      "stateMutability": "nonpayable",
      "type": "function"
    },
    {
      "inputs": [
        {
          "internalType": "address",
          "name": "_patient",
          "type": "address"
        },
        {
          "internalType": "string",
          "name": "_ipfsHash",
          "type": "string"
        }
      ],
      "name": "uploadRecord",
      "outputs": [],
      "stateMutability": "nonpayable",
      "type": "function"
    },
    {
      "inputs": [
        {
          "internalType": "address",
          "name": "",
          "type": "address"
        }
      ],
      "name": "users",
      "outputs": [
        {
          "internalType": "string",
          "name": "name",
          "type": "string"
        },
        {
          "internalType": "uint256",
          "name": "age",
          "type": "uint256"
        },
        {
          "internalType": "string",
          "name": "gender",
          "type": "string"
        },
        {
          "internalType": "enum CareChain.Role",
          "name": "role",
          "type": "uint8"
        },
        {
          "internalType": "uint256",
          "name": "hospitalId",
          "type": "uint256"
        },
        {
          "internalType": "bool",
          "name": "registered",
          "type": "bool"
        }
      ],
      "stateMutability": "view",
      "type": "function"
    }
  ],
  "bytecode": "0x608060405234801561001057600080fd5b50614e23806100206000396000f3fe608060405234801561001057600080fd5b506004361061018e5760003560e01c80638bdb00a1116100de578063bdccd8c011610097578063dddfc45f11610071578063dddfc45f14610515578063f0b65d7c14610531578063f38625bf1461054d578063fdcd58291461057d5761018e565b8063bdccd8c014610497578063be6ff6f7146104c9578063cdff7e00146104f95761018e565b80638bdb00a11461036f57806394f0df611461039f578063a04220d4146103cf578063a3412dbe14610402578063a87430ba14610432578063ae9218e5146104675761018e565b8063344610671161014b578063814ecf1a11610125578063814ecf1a146102e957806381dc6fd21461030557806382b7a324146103375780638b20b4ab146103535761018e565b806334461067146102795780634e0fa410146102ad5780637599be5d146102cb5761018e565b8063026e09cd1461019357806303e9e609146101af578063136bd148146101e157806318bd4847146101fd5780632c4002961461022d5780632ef711af1461025d575b600080fd5b6101ad60048036038101906101a891906137ee565b610599565b005b6101c960048036038101906101c49190613880565b6109eb565b6040516101d89392919061393b565b60405180910390f35b6101fb60048036038101906101f69190613979565b610e27565b005b610217600480360381019061021291906139d5565b611081565b6040516102249190613ac0565b60405180910390f35b61024760048036038101906102429190613ae2565b611118565b6040516102549190613b3d565b60405180910390f35b61027760048036038101906102729190613ae2565b611147565b005b610293600480360381019061028e9190613880565b611466565b6040516102a4959493929190613b67565b60405180910390f35b6102b5611544565b6040516102c29190613bc1565b60405180910390f35b6102d361154a565b6040516102e09190613bc1565b60405180910390f35b61030360048036038101906102fe9190613880565b611550565b005b61031f600480360381019061031a9190613880565b6119d4565b60405161032e93929190613bdc565b60405180910390f35b610351600480360381019061034c9190613c1a565b611aa6565b005b61036d60048036038101906103689190613c1a565b611cac565b005b61038960048036038101906103849190613c63565b611f6a565b6040516103969190613bc1565b60405180910390f35b6103b960048036038101906103b49190613c63565b611f8f565b6040516103c69190613bc1565b60405180910390f35b6103e960048036038101906103e49190613ca3565b611fc0565b6040516103f99493929190613ce3565b60405180910390f35b61041c60048036038101906104179190613ae2565b61202d565b6040516104299190613b3d565b60405180910390f35b61044c600480360381019061044791906139d5565b61205c565b60405161045e96959493929190613d9f565b60405180910390f35b610481600480360381019061047c9190613ca3565b6121c2565b60405161048e9190613e0e565b60405180910390f35b6104b160048036038101906104ac9190613880565b612210565b6040516104c09392919061393b565b60405180910390f35b6104e360048036038101906104de9190613880565b6127a9565b6040516104f09190613f3c565b60405180910390f35b610513600480360381019061050e9190613880565b61288f565b005b61052f600480360381019061052a9190613ae2565b612c9d565b005b61054b60048036038101906105469190613f5e565b613146565b005b61056760048036038101906105629190613880565b613406565b60405161057491906140ac565b60405180910390f35b61059760048036038101906105929190613ae2565b6134a7565b005b600360048111156105ad576105ac613d28565b5b600260003373ffffffffffffffffffffffffffffffffffffffff1673ffffffffffffffffffffffffffffffffffffffff16815260200190815260200160002060030160009054906101000a900460ff16600481111561060f5761060e613d28565b5b1461064f576040517f08c379a00000000000000000000000000000000000000000000000000000000081526004016106469061411a565b60405180910390fd5b600073ffffffffffffffffffffffffffffffffffffffff168273ffffffffffffffffffffffffffffffffffffffff16036106be576040517f08c379a00000000000000000000000000000000000000000000000000000000081526004016106b590614186565b60405180910390fd5b6000600260003373ffffffffffffffffffffffffffffffffffffffff1673ffffffffffffffffffffffffffffffffffffffff16815260200190815260200160002060040154905060016000815480929190610718906141d5565b91905055506040518060a0016040528060015481526020018473ffffffffffffffffffffffffffffffffffffffff168152602001828152602001838152602001428152506004600060015481526020019081526020016000206000820151816000015560208201518160010160006101000a81548173ffffffffffffffffffffffffffffffffffffffff021916908373ffffffffffffffffffffffffffffffffffffffff1602179055506040820151816002015560608201518160030190816107e19190614429565b5060808201518160040155905050600560008473ffffffffffffffffffffffffffffffffffffffff1673ffffffffffffffffffffffffffffffffffffffff16815260200190815260200160002060015490806001815401808255809150506001900390600052602060002001600090919091909150558273ffffffffffffffffffffffffffffffffffffffff166001547f0be32d2dacaacf3ff2db18bccf0d693d302ca71512b03977bb8ddee55f6b11ab83856040516108a29291906144fb565b60405180910390a36000805b600660008481526020019081526020016000208054905081101561096a578473ffffffffffffffffffffffffffffffffffffffff166006600085815260200190815260200160002082815481106109085761090761452b565b5b9060005260206000200160009054906101000a900473ffffffffffffffffffffffffffffffffffffffff1673ffffffffffffffffffffffffffffffffffffffff1603610957576001915061096a565b8080610962906141d5565b9150506108ae565b50806109e55760066000838152602001908152602001600020849080600181540180825580915050600190039060005260206000200160009091909190916101000a81548173ffffffffffffffffffffffffffffffffffffffff021916908373ffffffffffffffffffffffffffffffffffffffff1602179055505b50505050565b60606000806000600460008681526020019081526020016000206040518060a0016040529081600082015481526020016001820160009054906101000a900473ffffffffffffffffffffffffffffffffffffffff1673ffffffffffffffffffffffffffffffffffffffff1673ffffffffffffffffffffffffffffffffffffffff16815260200160028201548152602001600382018054610a8a9061424c565b80601f0160208091040260200160405190810160405280929190818152602001828054610ab69061424c565b8015610b035780601f10610ad857610100808354040283529160200191610b03565b820191906000526020600020905b815481529060010190602001808311610ae657829003601f168201915b5050505050815260200160048201548152505090506000816000015103610b5f576040517f08c379a0000000000000000000000000000000000000000000000000000000008152600401610b56906145a6565b60405180910390fd5b6000816020015173ffffffffffffffffffffffffffffffffffffffff163373ffffffffffffffffffffffffffffffffffffffff1614905080158015610c95575060026004811115610bb357610bb2613d28565b5b600260003373ffffffffffffffffffffffffffffffffffffffff1673ffffffffffffffffffffffffffffffffffffffff16815260200190815260200160002060030160009054906101000a900460ff166004811115610c1557610c14613d28565b5b1480610c94575060036004811115610c3057610c2f613d28565b5b600260003373ffffffffffffffffffffffffffffffffffffffff1673ffffffffffffffffffffffffffffffffffffffff16815260200190815260200160002060030160009054906101000a900460ff166004811115610c9257610c91613d28565b5b145b5b8015610ce657508160400151600260003373ffffffffffffffffffffffffffffffffffffffff1673ffffffffffffffffffffffffffffffffffffffff16815260200190815260200160002060040154145b15610cf057600190505b80158015610d5857506008600087815260200190815260200160002060003373ffffffffffffffffffffffffffffffffffffffff1673ffffffffffffffffffffffffffffffffffffffff16815260200190815260200160002060009054906101000a900460ff165b15610d6257600190505b80158015610dbf575042600960003373ffffffffffffffffffffffffffffffffffffffff1673ffffffffffffffffffffffffffffffffffffffff168152602001908152602001600020600088815260200190815260200160002054115b15610dc957600190505b80610e09576040517f08c379a0000000000000000000000000000000000000000000000000000000008152600401610e0090614638565b60405180910390fd5b81606001518260400151836080015194509450945050509193909250565b600260003373ffffffffffffffffffffffffffffffffffffffff1673ffffffffffffffffffffffffffffffffffffffff16815260200190815260200160002060050160009054906101000a900460ff1615610eb7576040517f08c379a0000000000000000000000000000000000000000000000000000000008152600401610eae906146a4565b60405180910390fd5b600081118015610ec957506000548111155b610f08576040517f08c379a0000000000000000000000000000000000000000000000000000000008152600401610eff90614710565b60405180910390fd5b6040518060c001604052808381526020016000815260200160405180602001604052806000815250815260200160026004811115610f4957610f48613d28565b5b815260200182815260200160011515815250600260003373ffffffffffffffffffffffffffffffffffffffff1673ffffffffffffffffffffffffffffffffffffffff1681526020019081526020016000206000820151816000019081610faf9190614429565b50602082015181600101556040820151816002019081610fcf9190614429565b5060608201518160030160006101000a81548160ff02191690836004811115610ffb57610ffa613d28565b5b02179055506080820151816004015560a08201518160050160006101000a81548160ff0219169083151502179055509050503373ffffffffffffffffffffffffffffffffffffffff167f1f5e33d2573da99a901bca6b2c06d5f12b75dfd179bcbbe46a5216cf8349ee6b8383604051611075929190614730565b60405180910390a25050565b6060600560008373ffffffffffffffffffffffffffffffffffffffff1673ffffffffffffffffffffffffffffffffffffffff16815260200190815260200160002080548060200260200160405190810160405280929190818152602001828054801561110c57602002820191906000526020600020905b8154815260200190600101908083116110f8575b50505050509050919050565b60086020528160005260406000206020528060005260406000206000915091509054906101000a900460ff1681565b3373ffffffffffffffffffffffffffffffffffffffff166004600084815260200190815260200160002060010160009054906101000a900473ffffffffffffffffffffffffffffffffffffffff1673ffffffffffffffffffffffffffffffffffffffff16146111eb576040517f08c379a00000000000000000000000000000000000000000000000000000000081526004016111e2906147ac565b60405180910390fd5b6008600083815260200190815260200160002060008273ffffffffffffffffffffffffffffffffffffffff1673ffffffffffffffffffffffffffffffffffffffff16815260200190815260200160002060009054906101000a900460ff16611288576040517f08c379a000000000000000000000000000000000000000000000000000000000815260040161127f90614818565b60405180910390fd5b60006008600084815260200190815260200160002060008373ffffffffffffffffffffffffffffffffffffffff1673ffffffffffffffffffffffffffffffffffffffff16815260200190815260200160002060006101000a81548160ff0219169083151502179055506007600083815260200190815260200160002060405180608001604052803373ffffffffffffffffffffffffffffffffffffffff1681526020018481526020016005815260200142815250908060018154018082558091505060019003906000526020600020906004020160009091909190915060008201518160000160006101000a81548173ffffffffffffffffffffffffffffffffffffffff021916908373ffffffffffffffffffffffffffffffffffffffff16021790555060208201518160010155604082015181600201556060820151816003015550508073ffffffffffffffffffffffffffffffffffffffff16827fbdf496d41407769ff71ececae6537542760506406fb62a651e7ac685c637bd8360405160405180910390a3813373ffffffffffffffffffffffffffffffffffffffff167f268ba1489fdbe899676a65856df95f56e66b0ed2c273da8b6a2aab66b0917fd860054260405161145a929190614873565b60405180910390a35050565b60046020528060005260406000206000915090508060000154908060010160009054906101000a900473ffffffffffffffffffffffffffffffffffffffff16908060020154908060030180546114bb9061424c565b80601f01602080910402602001604051908101604052809291908181526020018280546114e79061424c565b80156115345780601f1061150957610100808354040283529160200191611534565b820191906000526020600020905b81548152906001019060200180831161151757829003601f168201915b5050505050908060040154905085565b60005481565b60015481565b6002600481111561156457611563613d28565b5b600260003373ffffffffffffffffffffffffffffffffffffffff1673ffffffffffffffffffffffffffffffffffffffff16815260200190815260200160002060030160009054906101000a900460ff1660048111156115c6576115c5613d28565b5b148061164457506004808111156115e0576115df613d28565b5b600260003373ffffffffffffffffffffffffffffffffffffffff1673ffffffffffffffffffffffffffffffffffffffff16815260200190815260200160002060030160009054906101000a900460ff16600481111561164257611641613d28565b5b145b611683576040517f08c379a000000000000000000000000000000000000000000000000000000000815260040161167a9061490e565b60405180910390fd5b6000600460008381526020019081526020016000206040518060a0016040529081600082015481526020016001820160009054906101000a900473ffffffffffffffffffffffffffffffffffffffff1673ffffffffffffffffffffffffffffffffffffffff1673ffffffffffffffffffffffffffffffffffffffff1681526020016002820154815260200160038201805461171d9061424c565b80601f01602080910402602001604051908101604052809291908181526020018280546117499061424c565b80156117965780601f1061176b57610100808354040283529160200191611796565b820191906000526020600020905b81548152906001019060200180831161177957829003601f168201915b50505050508152602001600482015481525050905060008160000151036117f2576040517f08c379a00000000000000000000000000000000000000000000000000000000081526004016117e9906145a6565b60405180910390fd5b6008600083815260200190815260200160002060003373ffffffffffffffffffffffffffffffffffffffff1673ffffffffffffffffffffffffffffffffffffffff16815260200190815260200160002060009054906101000a900460ff1615611890576040517f08c379a00000000000000000000000000000000000000000000000000000000081526004016118879061497a565b60405180910390fd5b42600960003373ffffffffffffffffffffffffffffffffffffffff1673ffffffffffffffffffffffffffffffffffffffff1681526020019081526020016000206000848152602001908152602001600020541115611923576040517f08c379a000000000000000000000000000000000000000000000000000000000815260040161191a906149e6565b60405180910390fd5b6001600a600084815260200190815260200160002060003373ffffffffffffffffffffffffffffffffffffffff1673ffffffffffffffffffffffffffffffffffffffff16815260200190815260200160002060006101000a81548160ff0219169083151502179055503373ffffffffffffffffffffffffffffffffffffffff16827ff38acc72f3b0627a37b8815ba6ca2f79f66bf46aa4e9498451a43a78eac3a94360405160405180910390a35050565b60036020528060005260406000206000915090508060000154908060010180546119fd9061424c565b80601f0160208091040260200160405190810160405280929190818152602001828054611a299061424c565b8015611a765780601f10611a4b57610100808354040283529160200191611a76565b820191906000526020600020905b815481529060010190602001808311611a5957829003601f168201915b5050505050908060020160009054906101000a900473ffffffffffffffffffffffffffffffffffffffff16905083565b600260003373ffffffffffffffffffffffffffffffffffffffff1673ffffffffffffffffffffffffffffffffffffffff16815260200190815260200160002060050160009054906101000a900460ff1615611b36576040517f08c379a0000000000000000000000000000000000000000000000000000000008152600401611b2d906146a4565b60405180910390fd5b6040518060c0016040528082815260200160008152602001604051806020016040528060008152508152602001600480811115611b7657611b75613d28565b5b81526020016000815260200160011515815250600260003373ffffffffffffffffffffffffffffffffffffffff1673ffffffffffffffffffffffffffffffffffffffff1681526020019081526020016000206000820151816000019081611bdd9190614429565b50602082015181600101556040820151816002019081611bfd9190614429565b5060608201518160030160006101000a81548160ff02191690836004811115611c2957611c28613d28565b5b02179055506080820151816004015560a08201518160050160006101000a81548160ff0219169083151502179055509050503373ffffffffffffffffffffffffffffffffffffffff167ffb8c88632fd72badcd6d52fac5bfb4fadcb7c7eec796b3ade03fb0c48c82e42c82604051611ca19190614a06565b60405180910390a250565b600260003373ffffffffffffffffffffffffffffffffffffffff1673ffffffffffffffffffffffffffffffffffffffff16815260200190815260200160002060050160009054906101000a900460ff1615611d3c576040517f08c379a0000000000000000000000000000000000000000000000000000000008152600401611d33906146a4565b60405180910390fd5b600080815480929190611d4e906141d5565b9190505550604051806060016040528060005481526020018281526020013373ffffffffffffffffffffffffffffffffffffffff168152506003600080548152602001908152602001600020600082015181600001556020820151816001019081611db99190614429565b5060408201518160020160006101000a81548173ffffffffffffffffffffffffffffffffffffffff021916908373ffffffffffffffffffffffffffffffffffffffff1602179055509050506040518060c001604052808281526020016000815260200160405180602001604052806000815250815260200160036004811115611e4557611e44613d28565b5b8152602001600054815260200160011515815250600260003373ffffffffffffffffffffffffffffffffffffffff1673ffffffffffffffffffffffffffffffffffffffff1681526020019081526020016000206000820151816000019081611ead9190614429565b50602082015181600101556040820151816002019081611ecd9190614429565b5060608201518160030160006101000a81548160ff02191690836004811115611ef957611ef8613d28565b5b02179055506080820151816004015560a08201518160050160006101000a81548160ff0219169083151502179055509050506000547fbc26e9dd83eda23eaacac7e29ea9caabc2e3c1f68d6e6c2cbd7d4b2e5ff5a6f38233604051611f5f929190614a28565b60405180910390a250565b6009602052816000526040600020602052806000526040600020600091509150505481565b60056020528160005260406000208181548110611fab57600080fd5b90600052602060002001600091509150505481565b60076020528160005260406000208181548110611fdc57600080fd5b9060005260206000209060040201600091509150508060000160009054906101000a900473ffffffffffffffffffffffffffffffffffffffff16908060010154908060020154908060030154905084565b600a6020528160005260406000206020528060005260406000206000915091509054906101000a900460ff1681565b600260205280600052604060002060009150905080600001805461207f9061424c565b80601f01602080910402602001604051908101604052809291908181526020018280546120ab9061424c565b80156120f85780601f106120cd576101008083540402835291602001916120f8565b820191906000526020600020905b8154815290600101906020018083116120db57829003601f168201915b5050505050908060010154908060020180546121139061424c565b80601f016020809104026020016040519081016040528092919081815260200182805461213f9061424c565b801561218c5780601f106121615761010080835404028352916020019161218c565b820191906000526020600020905b81548152906001019060200180831161216f57829003601f168201915b5050505050908060030160009054906101000a900460ff16908060040154908060050160009054906101000a900460ff16905086565b600660205281600052604060002081815481106121de57600080fd5b906000526020600020016000915091509054906101000a900473ffffffffffffffffffffffffffffffffffffffff1681565b60606000806000600460008681526020019081526020016000206040518060a0016040529081600082015481526020016001820160009054906101000a900473ffffffffffffffffffffffffffffffffffffffff1673ffffffffffffffffffffffffffffffffffffffff1673ffffffffffffffffffffffffffffffffffffffff168152602001600282015481526020016003820180546122af9061424c565b80601f01602080910402602001604051908101604052809291908181526020018280546122db9061424c565b80156123285780601f106122fd57610100808354040283529160200191612328565b820191906000526020600020905b81548152906001019060200180831161230b57829003601f168201915b5050505050815260200160048201548152505090506000816000015103612384576040517f08c379a000000000000000000000000000000000000000000000000000000000815260040161237b906145a6565b60405180910390fd5b60008060009050826020015173ffffffffffffffffffffffffffffffffffffffff163373ffffffffffffffffffffffffffffffffffffffff16036123df578260600151836040015184608001519550955095505050506127a2565b801580156124de5750600260048111156123fc576123fb613d28565b5b600260003373ffffffffffffffffffffffffffffffffffffffff1673ffffffffffffffffffffffffffffffffffffffff16815260200190815260200160002060030160009054906101000a900460ff16600481111561245e5761245d613d28565b5b14806124dd57506003600481111561247957612478613d28565b5b600260003373ffffffffffffffffffffffffffffffffffffffff1673ffffffffffffffffffffffffffffffffffffffff16815260200190815260200160002060030160009054906101000a900460ff1660048111156124db576124da613d28565b5b145b5b801561252f57508260400151600260003373ffffffffffffffffffffffffffffffffffffffff1673ffffffffffffffffffffffffffffffffffffffff16815260200190815260200160002060040154145b1561253d5760019050600191505b801580156125a557506008600088815260200190815260200160002060003373ffffffffffffffffffffffffffffffffffffffff1673ffffffffffffffffffffffffffffffffffffffff16815260200190815260200160002060009054906101000a900460ff165b156125b35760019050600291505b80158015612610575042600960003373ffffffffffffffffffffffffffffffffffffffff1673ffffffffffffffffffffffffffffffffffffffff168152602001908152602001600020600089815260200190815260200160002054115b1561261e5760019050600391505b8061265e576040517f08c379a000000000000000000000000000000000000000000000000000000000815260040161265590614638565b60405180910390fd5b6007600088815260200190815260200160002060405180608001604052803373ffffffffffffffffffffffffffffffffffffffff16815260200189815260200184815260200142815250908060018154018082558091505060019003906000526020600020906004020160009091909190915060008201518160000160006101000a81548173ffffffffffffffffffffffffffffffffffffffff021916908373ffffffffffffffffffffffffffffffffffffffff1602179055506020820151816001015560408201518160020155606082015181600301555050863373ffffffffffffffffffffffffffffffffffffffff167f268ba1489fdbe899676a65856df95f56e66b0ed2c273da8b6a2aab66b0917fd88442604051612781929190614a58565b60405180910390a38260600151836040015184608001519550955095505050505b9193909250565b606060076000838152602001908152602001600020805480602002602001604051908101604052809291908181526020016000905b8282101561288457838290600052602060002090600402016040518060800160405290816000820160009054906101000a900473ffffffffffffffffffffffffffffffffffffffff1673ffffffffffffffffffffffffffffffffffffffff1673ffffffffffffffffffffffffffffffffffffffff1681526020016001820154815260200160028201548152602001600382015481525050815260200190600101906127de565b505050509050919050565b600260048111156128a3576128a2613d28565b5b600260003373ffffffffffffffffffffffffffffffffffffffff1673ffffffffffffffffffffffffffffffffffffffff16815260200190815260200160002060030160009054906101000a900460ff16600481111561290557612904613d28565b5b14612945576040517f08c379a000000000000000000000000000000000000000000000000000000000815260040161293c90614af3565b60405180910390fd5b6000600460008381526020019081526020016000206040518060a0016040529081600082015481526020016001820160009054906101000a900473ffffffffffffffffffffffffffffffffffffffff1673ffffffffffffffffffffffffffffffffffffffff1673ffffffffffffffffffffffffffffffffffffffff168152602001600282015481526020016003820180546129df9061424c565b80601f0160208091040260200160405190810160405280929190818152602001828054612a0b9061424c565b8015612a585780601f10612a2d57610100808354040283529160200191612a58565b820191906000526020600020905b815481529060010190602001808311612a3b57829003601f168201915b5050505050815260200160048201548152505090506000816000015103612ab4576040517f08c379a0000000000000000000000000000000000000000000000000000000008152600401612aab906145a6565b60405180910390fd5b60006201518042612ac59190614b13565b905080600960003373ffffffffffffffffffffffffffffffffffffffff1673ffffffffffffffffffffffffffffffffffffffff1681526020019081526020016000206000858152602001908152602001600020819055506007600084815260200190815260200160002060405180608001604052803373ffffffffffffffffffffffffffffffffffffffff1681526020018581526020016003815260200142815250908060018154018082558091505060019003906000526020600020906004020160009091909190915060008201518160000160006101000a81548173ffffffffffffffffffffffffffffffffffffffff021916908373ffffffffffffffffffffffffffffffffffffffff1602179055506020820151816001015560408201518160020155606082015181600301555050823373ffffffffffffffffffffffffffffffffffffffff167fb0b91b72bb128ad54bbd4f324b5920f8bea43afd97db0fbd1c555fe3ccd5b75b83604051612c3e9190613bc1565b60405180910390a3823373ffffffffffffffffffffffffffffffffffffffff167f268ba1489fdbe899676a65856df95f56e66b0ed2c273da8b6a2aab66b0917fd8600342604051612c90929190614b82565b60405180910390a3505050565b3373ffffffffffffffffffffffffffffffffffffffff166004600084815260200190815260200160002060010160009054906101000a900473ffffffffffffffffffffffffffffffffffffffff1673ffffffffffffffffffffffffffffffffffffffff1614612d41576040517f08c379a0000000000000000000000000000000000000000000000000000000008152600401612d3890614bf7565b60405180910390fd5b600260008273ffffffffffffffffffffffffffffffffffffffff1673ffffffffffffffffffffffffffffffffffffffff16815260200190815260200160002060050160009054906101000a900460ff16612dd0576040517f08c379a0000000000000000000000000000000000000000000000000000000008152600401612dc790614c63565b60405180910390fd5b60016008600084815260200190815260200160002060008373ffffffffffffffffffffffffffffffffffffffff1673ffffffffffffffffffffffffffffffffffffffff16815260200190815260200160002060006101000a81548160ff021916908315150217905550600a600083815260200190815260200160002060008273ffffffffffffffffffffffffffffffffffffffff1673ffffffffffffffffffffffffffffffffffffffff16815260200190815260200160002060006101000a81549060ff021916905560026004811115612ead57612eac613d28565b5b600260008373ffffffffffffffffffffffffffffffffffffffff1673ffffffffffffffffffffffffffffffffffffffff16815260200190815260200160002060030160009054906101000a900460ff166004811115612f0f57612f0e613d28565b5b1480612f8d5750600480811115612f2957612f28613d28565b5b600260008373ffffffffffffffffffffffffffffffffffffffff1673ffffffffffffffffffffffffffffffffffffffff16815260200190815260200160002060030160009054906101000a900460ff166004811115612f8b57612f8a613d28565b5b145b612fcc576040517f08c379a0000000000000000000000000000000000000000000000000000000008152600401612fc390614cf5565b60405180910390fd5b6000600290506007600084815260200190815260200160002060405180608001604052808473ffffffffffffffffffffffffffffffffffffffff16815260200185815260200183815260200142815250908060018154018082558091505060019003906000526020600020906004020160009091909190915060008201518160000160006101000a81548173ffffffffffffffffffffffffffffffffffffffff021916908373ffffffffffffffffffffffffffffffffffffffff16021790555060208201518160010155604082015181600201556060820151816003015550508173ffffffffffffffffffffffffffffffffffffffff16837ffaff9d6e9dcb1cc023061eb19e57affbea9bc17d7d83f953c2b62eb4af88977e60405160405180910390a3828273ffffffffffffffffffffffffffffffffffffffff167f268ba1489fdbe899676a65856df95f56e66b0ed2c273da8b6a2aab66b0917fd88342604051613139929190614a58565b60405180910390a3505050565b600260003373ffffffffffffffffffffffffffffffffffffffff1673ffffffffffffffffffffffffffffffffffffffff16815260200190815260200160002060050160009054906101000a900460ff16156131d6576040517f08c379a00000000000000000000000000000000000000000000000000000000081526004016131cd906146a4565b60405180910390fd5b6000811180156131e857506000548111155b613227576040517f08c379a000000000000000000000000000000000000000000000000000000000815260040161321e90614710565b60405180910390fd5b6040518060c001604052808581526020018481526020018381526020016001600481111561325857613257613d28565b5b815260200182815260200160011515815250600260003373ffffffffffffffffffffffffffffffffffffffff1673ffffffffffffffffffffffffffffffffffffffff16815260200190815260200160002060008201518160000190816132be9190614429565b506020820151816001015560408201518160020190816132de9190614429565b5060608201518160030160006101000a81548160ff0219169083600481111561330a57613309613d28565b5b02179055506080820151816004015560a08201518160050160006101000a81548160ff02191690831515021790555090505060066000828152602001908152602001600020339080600181540180825580915050600190039060005260206000200160009091909190916101000a81548173ffffffffffffffffffffffffffffffffffffffff021916908373ffffffffffffffffffffffffffffffffffffffff1602179055503373ffffffffffffffffffffffffffffffffffffffff167f096f893428730b9f440cde9930f6fbd450ce2d7ac1f2895f0d869da7376a36d185836040516133f8929190614730565b60405180910390a250505050565b60606006600083815260200190815260200160002080548060200260200160405190810160405280929190818152602001828054801561349b57602002820191906000526020600020905b8160009054906101000a900473ffffffffffffffffffffffffffffffffffffffff1673ffffffffffffffffffffffffffffffffffffffff1681526020019060010190808311613451575b50505050509050919050565b3373ffffffffffffffffffffffffffffffffffffffff166004600084815260200190815260200160002060010160009054906101000a900473ffffffffffffffffffffffffffffffffffffffff1673ffffffffffffffffffffffffffffffffffffffff161461354b576040517f08c379a000000000000000000000000000000000000000000000000000000000815260040161354290614d61565b60405180910390fd5b6000600960008373ffffffffffffffffffffffffffffffffffffffff1673ffffffffffffffffffffffffffffffffffffffff168152602001908152602001600020600084815260200190815260200160002054116135de576040517f08c379a00000000000000000000000000000000000000000000000000000000081526004016135d590614dcd565b60405180910390fd5b600960008273ffffffffffffffffffffffffffffffffffffffff1673ffffffffffffffffffffffffffffffffffffffff1681526020019081526020016000206000838152602001908152602001600020600090555050565b6000604051905090565b600080fd5b600080fd5b600073ffffffffffffffffffffffffffffffffffffffff82169050919050565b60006136758261364a565b9050919050565b6136858161366a565b811461369057600080fd5b50565b6000813590506136a28161367c565b92915050565b600080fd5b600080fd5b6000601f19601f8301169050919050565b7f4e487b7100000000000000000000000000000000000000000000000000000000600052604160045260246000fd5b6136fb826136b2565b810181811067ffffffffffffffff8211171561371a576137196136c3565b5b80604052505050565b600061372d613636565b905061373982826136f2565b919050565b600067ffffffffffffffff821115613759576137586136c3565b5b613762826136b2565b9050602081019050919050565b82818337600083830152505050565b600061379161378c8461373e565b613723565b9050828152602081018484840111156137ad576137ac6136ad565b5b6137b884828561376f565b509392505050565b600082601f8301126137d5576137d46136a8565b5b81356137e584826020860161377e565b91505092915050565b6000806040838503121561380557613804613640565b5b600061381385828601613693565b925050602083013567ffffffffffffffff81111561383457613833613645565b5b613840858286016137c0565b9150509250929050565b6000819050919050565b61385d8161384a565b811461386857600080fd5b50565b60008135905061387a81613854565b92915050565b60006020828403121561389657613895613640565b5b60006138a48482850161386b565b91505092915050565b600081519050919050565b600082825260208201905092915050565b60005b838110156138e75780820151818401526020810190506138cc565b60008484015250505050565b60006138fe826138ad565b61390881856138b8565b93506139188185602086016138c9565b613921816136b2565b840191505092915050565b6139358161384a565b82525050565b6000606082019050818103600083015261395581866138f3565b9050613964602083018561392c565b613971604083018461392c565b949350505050565b600080604083850312156139905761398f613640565b5b600083013567ffffffffffffffff8111156139ae576139ad613645565b5b6139ba858286016137c0565b92505060206139cb8582860161386b565b9150509250929050565b6000602082840312156139eb576139ea613640565b5b60006139f984828501613693565b91505092915050565b600081519050919050565b600082825260208201905092915050565b6000819050602082019050919050565b613a378161384a565b82525050565b6000613a498383613a2e565b60208301905092915050565b6000602082019050919050565b6000613a6d82613a02565b613a778185613a0d565b9350613a8283613a1e565b8060005b83811015613ab3578151613a9a8882613a3d565b9750613aa583613a55565b925050600181019050613a86565b5085935050505092915050565b60006020820190508181036000830152613ada8184613a62565b905092915050565b60008060408385031215613af957613af8613640565b5b6000613b078582860161386b565b9250506020613b1885828601613693565b9150509250929050565b60008115159050919050565b613b3781613b22565b82525050565b6000602082019050613b526000830184613b2e565b92915050565b613b618161366a565b82525050565b600060a082019050613b7c600083018861392c565b613b896020830187613b58565b613b96604083018661392c565b8181036060830152613ba881856138f3565b9050613bb7608083018461392c565b9695505050505050565b6000602082019050613bd6600083018461392c565b92915050565b6000606082019050613bf1600083018661392c565b8181036020830152613c0381856138f3565b9050613c126040830184613b58565b949350505050565b600060208284031215613c3057613c2f613640565b5b600082013567ffffffffffffffff811115613c4e57613c4d613645565b5b613c5a848285016137c0565b91505092915050565b60008060408385031215613c7a57613c79613640565b5b6000613c8885828601613693565b9250506020613c998582860161386b565b9150509250929050565b60008060408385031215613cba57613cb9613640565b5b6000613cc88582860161386b565b9250506020613cd98582860161386b565b9150509250929050565b6000608082019050613cf86000830187613b58565b613d05602083018661392c565b613d12604083018561392c565b613d1f606083018461392c565b95945050505050565b7f4e487b7100000000000000000000000000000000000000000000000000000000600052602160045260246000fd5b60058110613d6857613d67613d28565b5b50565b6000819050613d7982613d57565b919050565b6000613d8982613d6b565b9050919050565b613d9981613d7e565b82525050565b600060c0820190508181036000830152613db981896138f3565b9050613dc8602083018861392c565b8181036040830152613dda81876138f3565b9050613de96060830186613d90565b613df6608083018561392c565b613e0360a0830184613b2e565b979650505050505050565b6000602082019050613e236000830184613b58565b92915050565b600081519050919050565b600082825260208201905092915050565b6000819050602082019050919050565b613e5e8161366a565b82525050565b608082016000820151613e7a6000850182613e55565b506020820151613e8d6020850182613a2e565b506040820151613ea06040850182613a2e565b506060820151613eb36060850182613a2e565b50505050565b6000613ec58383613e64565b60808301905092915050565b6000602082019050919050565b6000613ee982613e29565b613ef38185613e34565b9350613efe83613e45565b8060005b83811015613f2f578151613f168882613eb9565b9750613f2183613ed1565b925050600181019050613f02565b5085935050505092915050565b60006020820190508181036000830152613f568184613ede565b905092915050565b60008060008060808587031215613f7857613f77613640565b5b600085013567ffffffffffffffff811115613f9657613f95613645565b5b613fa2878288016137c0565b9450506020613fb38782880161386b565b935050604085013567ffffffffffffffff811115613fd457613fd3613645565b5b613fe0878288016137c0565b9250506060613ff18782880161386b565b91505092959194509250565b600081519050919050565b600082825260208201905092915050565b6000819050602082019050919050565b60006140358383613e55565b60208301905092915050565b6000602082019050919050565b600061405982613ffd565b6140638185614008565b935061406e83614019565b8060005b8381101561409f5781516140868882614029565b975061409183614041565b925050600181019050614072565b5085935050505092915050565b600060208201905081810360008301526140c6818461404e565b905092915050565b7f4f6e6c7920686f73706974616c2061646d696e00000000000000000000000000600082015250565b60006141046013836138b8565b915061410f826140ce565b602082019050919050565b60006020820190508181036000830152614133816140f7565b9050919050565b7f496e76616c69642070617469656e742061646472657373000000000000000000600082015250565b60006141706017836138b8565b915061417b8261413a565b602082019050919050565b6000602082019050818103600083015261419f81614163565b9050919050565b7f4e487b7100000000000000000000000000000000000000000000000000000000600052601160045260246000fd5b60006141e08261384a565b91507fffffffffffffffffffffffffffffffffffffffffffffffffffffffffffffffff8203614212576142116141a6565b5b600182019050919050565b7f4e487b7100000000000000000000000000000000000000000000000000000000600052602260045260246000fd5b6000600282049050600182168061426457607f821691505b6020821081036142775761427661421d565b5b50919050565b60008190508160005260206000209050919050565b60006020601f8301049050919050565b600082821b905092915050565b6000600883026142df7fffffffffffffffffffffffffffffffffffffffffffffffffffffffffffffffff826142a2565b6142e986836142a2565b95508019841693508086168417925050509392505050565b6000819050919050565b600061432661432161431c8461384a565b614301565b61384a565b9050919050565b6000819050919050565b6143408361430b565b61435461434c8261432d565b8484546142af565b825550505050565b600090565b61436961435c565b614374818484614337565b505050565b5b818110156143985761438d600082614361565b60018101905061437a565b5050565b601f8211156143dd576143ae8161427d565b6143b784614292565b810160208510156143c6578190505b6143da6143d285614292565b830182614379565b50505b505050565b600082821c905092915050565b6000614400600019846008026143e2565b1980831691505092915050565b600061441983836143ef565b9150826002028217905092915050565b614432826138ad565b67ffffffffffffffff81111561444b5761444a6136c3565b5b614455825461424c565b61446082828561439c565b600060209050601f8311600181146144935760008415614481578287015190505b61448b858261440d565b8655506144f3565b601f1984166144a18661427d565b60005b828110156144c9578489015182556001820191506020850194506020810190506144a4565b868310156144e657848901516144e2601f8916826143ef565b8355505b6001600288020188555050505b505050505050565b6000604082019050614510600083018561392c565b818103602083015261452281846138f3565b90509392505050565b7f4e487b7100000000000000000000000000000000000000000000000000000000600052603260045260246000fd5b7f5265636f726420646f6573206e6f742065786973740000000000000000000000600082015250565b60006145906015836138b8565b915061459b8261455a565b602082019050919050565b600060208201905081810360008301526145bf81614583565b9050919050565b7f4e6f7420617574686f72697a656420746f20616363657373207468697320726560008201527f636f726400000000000000000000000000000000000000000000000000000000602082015250565b60006146226024836138b8565b915061462d826145c6565b604082019050919050565b6000602082019050818103600083015261465181614615565b9050919050565b7f416c726561647920726567697374657265640000000000000000000000000000600082015250565b600061468e6012836138b8565b915061469982614658565b602082019050919050565b600060208201905081810360008301526146bd81614681565b9050919050565b7f496e76616c696420686f73706974616c20494400000000000000000000000000600082015250565b60006146fa6013836138b8565b9150614705826146c4565b602082019050919050565b60006020820190508181036000830152614729816146ed565b9050919050565b6000604082019050818103600083015261474a81856138f3565b9050614759602083018461392c565b9392505050565b7f4f6e6c792070617469656e742063616e207265766f6b6520636f6e73656e7400600082015250565b6000614796601f836138b8565b91506147a182614760565b602082019050919050565b600060208201905081810360008301526147c581614789565b9050919050565b7f4e6f2061637469766520636f6e73656e7420746f207265766f6b650000000000600082015250565b6000614802601b836138b8565b915061480d826147cc565b602082019050919050565b60006020820190508181036000830152614831816147f5565b9050919050565b6000819050919050565b600061485d61485861485384614838565b614301565b61384a565b9050919050565b61486d81614842565b82525050565b60006040820190506148886000830185614864565b614895602083018461392c565b9392505050565b7f4f6e6c7920646f63746f7273206f72207374616b65686f6c646572732063616e60008201527f207265717565737420636f6e73656e7400000000000000000000000000000000602082015250565b60006148f86030836138b8565b91506149038261489c565b604082019050919050565b60006020820190508181036000830152614927816148eb565b9050919050565b7f436f6e73656e7420616c726561647920676976656e0000000000000000000000600082015250565b60006149646015836138b8565b915061496f8261492e565b602082019050919050565b6000602082019050818103600083015261499381614957565b9050919050565b7f456d657267656e63792061636365737320616c72656164792061637469766500600082015250565b60006149d0601f836138b8565b91506149db8261499a565b602082019050919050565b600060208201905081810360008301526149ff816149c3565b9050919050565b60006020820190508181036000830152614a2081846138f3565b905092915050565b60006040820190508181036000830152614a4281856138f3565b9050614a516020830184613b58565b9392505050565b6000604082019050614a6d600083018561392c565b614a7a602083018461392c565b9392505050565b7f4f6e6c7920646f63746f72732063616e207265717565737420656d657267656e60008201527f6379206163636573730000000000000000000000000000000000000000000000602082015250565b6000614add6029836138b8565b9150614ae882614a81565b604082019050919050565b60006020820190508181036000830152614b0c81614ad0565b9050919050565b6000614b1e8261384a565b9150614b298361384a565b9250828201905080821115614b4157614b406141a6565b5b92915050565b6000819050919050565b6000614b6c614b67614b6284614b47565b614301565b61384a565b9050919050565b614b7c81614b51565b82525050565b6000604082019050614b976000830185614b73565b614ba4602083018461392c565b9392505050565b7f4f6e6c792070617469656e742063616e206769766520636f6e73656e74000000600082015250565b6000614be1601d836138b8565b9150614bec82614bab565b602082019050919050565b60006020820190508181036000830152614c1081614bd4565b9050919050565b7f4772616e746565206d7573742062652072656769737465726564000000000000600082015250565b6000614c4d601a836138b8565b9150614c5882614c17565b602082019050919050565b60006020820190508181036000830152614c7c81614c40565b9050919050565b7f436f6e73656e742063616e206f6e6c7920626520676976656e20746f20646f6360008201527f746f7273206f72207374616b65686f6c64657273000000000000000000000000602082015250565b6000614cdf6034836138b8565b9150614cea82614c83565b604082019050919050565b60006020820190508181036000830152614d0e81614cd2565b9050919050565b7f4f6e6c792070617469656e742063616e207265766f6b65000000000000000000600082015250565b6000614d4b6017836138b8565b9150614d5682614d15565b602082019050919050565b60006020820190508181036000830152614d7a81614d3e565b9050919050565b7f4e6f2061637469766520656d657267656e637920616363657373000000000000600082015250565b6000614db7601a836138b8565b9150614dc282614d81565b602082019050919050565b60006020820190508181036000830152614de681614daa565b905091905056fea2646970667358221220dd4026d84e0dac1d4b1de2b862db8254e693dec978c543a73912f056424094ea64736f6c63430008140033",
  "linkReferences": {},
  "deployedLinkReferences": {}
}