{
  "_format": "hh-sol-artifact-1",
  "contractName": "CareChain",
  "sourceName": "contracts/CareChain.sol",
  "abi": [
    {
      "anonymous": false,
      "inputs": [
        {
          "indexed": true,
          "internalType": "address",
          "name": "accessor",
          "type": "address"
        },
        {
          "indexed": true,
          "internalType": "uint256",
          "name": "recordId",
          "type": "uint256"
        },
        {
          "indexed": false,
          "internalType": "uint256",
          "name": "tier",
          "type": "uint256"
        },
        {
          "indexed": false,
          "internalType": "uint256",
          "name": "time",
          "type": "uint256"
        }
      ],
      "name": "AccessLogged",
      "type": "event"
    },
    {
      "anonymous": false,
      "inputs": [
        {
          "indexed": true,
          "internalType": "uint256",
          "name": "recordId",
          "type": "uint256"
        },
        {
          "indexed": true,
          "internalType": "address",
          "name": "doctor",
          "type": "address"
        }
      ],
      "name": "ConsentGiven",
      "type": "event"
    },
    {
      "anonymous": false,
      "inputs": [
        {
          "indexed": true,
          "internalType": "uint256",
          "name": "recordId",
          "type": "uint256"
        },
        {
          "indexed": true,
          "internalType": "address",
          "name": "doctor",
          "type": "address"
        }
      ],
      "name": "ConsentRequested",
      "type": "event"
    },
    {
      "anonymous": false,
      "inputs": [
        {
          "indexed": true,
          "internalType": "address",
          "name": "doctor",
          "type": "address"
        },
        {
          "indexed": false,
          "internalType": "string",
          "name": "name",
          "type": "string"
        },
        {
          "indexed": false,
          "internalType": "uint256",
          "name": "hospitalId",
          "type": "uint256"
        }
      ],
      "name": "DoctorRegistered",
      "type": "event"
    },
    {
      "anonymous": false,
      "inputs": [
        {
          "indexed": true,
          "internalType": "address",
          "name": "doctor",
          "type": "address"
        },
        {
          "indexed": true,
          "internalType": "uint256",
          "name": "recordId",
          "type": "uint256"
        },
        {
          "indexed": false,
          "internalType": "uint256",
          "name": "expiry",
          "type": "uint256"
        }
      ],
      "name": "EmergencyAccessGranted",
      "type": "event"
    },
    {
      "anonymous": false,
      "inputs": [
        {
          "indexed": true,
          "internalType": "uint256",
          "name": "hospitalId",
          "type": "uint256"
        },
        {
          "indexed": false,
          "internalType": "string",
          "name": "name",
          "type": "string"
        },
        {
          "indexed": false,
          "internalType": "address",
          "name": "admin",
          "type": "address"
        }
      ],
      "name": "HospitalRegistered",
      "type": "event"
    },
    {
      "anonymous": false,
      "inputs": [
        {
          "indexed": true,
          "internalType": "address",
          "name": "patient",
          "type": "address"
        },
        {
          "indexed": false,
          "internalType": "string",
          "name": "name",
          "type": "string"
        },
        {
          "indexed": false,
          "internalType": "uint256",
          "name": "hospitalId",
          "type": "uint256"
        }
      ],
      "name": "PatientRegistered",
      "type": "event"
    },
    {
      "anonymous": false,
      "inputs": [
        {
          "indexed": true,
          "internalType": "uint256",
          "name": "recordId",
          "type": "uint256"
        },
        {
          "indexed": true,
          "internalType": "address",
          "name": "patient",
          "type": "address"
        },
        {
          "indexed": false,
          "internalType": "uint256",
          "name": "hospitalId",
          "type": "uint256"
        },
        {
          "indexed": false,
          "internalType": "string",
          "name": "ipfsHash",
          "type": "string"
        }
      ],
      "name": "RecordUploaded",
      "type": "event"
    },
    {
      "inputs": [
        {
          "internalType": "uint256",
          "name": "",
          "type": "uint256"
        },
        {
          "internalType": "uint256",
          "name": "",
          "type": "uint256"
        }
      ],
      "name": "accessLogs",
      "outputs": [
        {
          "internalType": "address",
          "name": "accessor",
          "type": "address"
        },
        {
          "internalType": "uint256",
          "name": "recordId",
          "type": "uint256"
        },
        {
          "internalType": "uint256",
          "name": "tier",
          "type": "uint256"
        },
        {
          "internalType": "uint256",
          "name": "time",
          "type": "uint256"
        }
      ],
      "stateMutability": "view",
      "type": "function"
    },
    {
      "inputs": [
        {
          "internalType": "uint256",
          "name": "",
          "type": "uint256"
        },
        {
          "internalType": "address",
          "name": "",
          "type": "address"
        }
      ],
      "name": "consentGiven",
      "outputs": [
        {
          "internalType": "bool",
          "name": "",
          "type": "bool"
        }
      ],
      "stateMutability": "view",
      "type": "function"
    },
    {
      "inputs": [
        {
          "internalType": "uint256",
          "name": "",
          "type": "uint256"
        },
        {
          "internalType": "address",
          "name": "",
          "type": "address"
        }
      ],
      "name": "consentRequested",
      "outputs": [
        {
          "internalType": "bool",
          "name": "",
          "type": "bool"
        }
      ],
      "stateMutability": "view",
      "type": "function"
    },
    {
      "inputs": [
        {
          "internalType": "address",
          "name": "",
          "type": "address"
        },
        {
          "internalType": "uint256",
          "name": "",
          "type": "uint256"
        }
      ],
      "name": "emergencyAccess",
      "outputs": [
        {
          "internalType": "uint256",
          "name": "",
          "type": "uint256"
        }
      ],
      "stateMutability": "view",
      "type": "function"
    },
    {
      "inputs": [
        {
          "internalType": "uint256",
          "name": "_recordId",
          "type": "uint256"
        }
      ],
      "name": "getAccessLogs",
      "outputs": [
        {
          "components": [
            {
              "internalType": "address",
              "name": "accessor",
              "type": "address"
            },
            {
              "internalType": "uint256",
              "name": "recordId",
              "type": "uint256"
            },
            {
              "internalType": "uint256",
              "name": "tier",
              "type": "uint256"
            },
            {
              "internalType": "uint256",
              "name": "time",
              "type": "uint256"
            }
          ],
          "internalType": "struct CareChain.AccessLog[]",
          "name": "",
          "type": "tuple[]"
        }
      ],
      "stateMutability": "view",
      "type": "function"
    },
    {
      "inputs": [
        {
          "internalType": "uint256",
          "name": "_hospitalId",
          "type": "uint256"
        }
      ],
      "name": "getHospitalPatients",
      "outputs": [
        {
          "internalType": "address[]",
          "name": "",
          "type": "address[]"
        }
      ],
      "stateMutability": "view",
      "type": "function"
    },
    {
      "inputs": [
        {
          "internalType": "address",
          "name": "_patient",
          "type": "address"
        }
      ],
      "name": "getPatientRecords",
      "outputs": [
        {
          "internalType": "uint256[]",
          "name": "",
          "type": "uint256[]"
        }
      ],
      "stateMutability": "view",
      "type": "function"
    },
    {
      "inputs": [
        {
          "internalType": "uint256",
          "name": "_recordId",
          "type": "uint256"
        }
      ],
      "name": "getRecord",
      "outputs": [
        {
          "internalType": "string",
          "name": "ipfsHash",
          "type": "string"
        },
        {
          "internalType": "uint256",
          "name": "hospitalId",
          "type": "uint256"
        },
        {
          "internalType": "uint256",
          "name": "timestamp",
          "type": "uint256"
        }
      ],
      "stateMutability": "view",
      "type": "function"
    },
    {
      "inputs": [
        {
          "internalType": "uint256",
          "name": "_recordId",
          "type": "uint256"
        },
        {
          "internalType": "address",
          "name": "_doctor",
          "type": "address"
        }
      ],
      "name": "giveConsent",
      "outputs": [],
      "stateMutability": "nonpayable",
      "type": "function"
    },
    {
      "inputs": [],
      "name": "hospitalCounter",
      "outputs": [
        {
          "internalType": "uint256",
          "name": "",
          "type": "uint256"
        }
      ],
      "stateMutability": "view",
      "type": "function"
    },
    {
      "inputs": [
        {
          "internalType": "uint256",
          "name": "",
          "type": "uint256"
        },
        {
          "internalType": "uint256",
          "name": "",
          "type": "uint256"
        }
      ],
      "name": "hospitalPatients",
      "outputs": [
        {
          "internalType": "address",
          "name": "",
          "type": "address"
        }
      ],
      "stateMutability": "view",
      "type": "function"
    },
    {
      "inputs": [
        {
          "internalType": "uint256",
          "name": "",
          "type": "uint256"
        }
      ],
      "name": "hospitals",
      "outputs": [
        {
          "internalType": "uint256",
          "name": "id",
          "type": "uint256"
        },
        {
          "internalType": "string",
          "name": "name",
          "type": "string"
        },
        {
          "internalType": "address",
          "name": "admin",
          "type": "address"
        }
      ],
      "stateMutability": "view",
      "type": "function"
    },
    {
      "inputs": [
        {
          "internalType": "address",
          "name": "",
          "type": "address"
        },
        {
          "internalType": "uint256",
          "name": "",
          "type": "uint256"
        }
      ],
      "name": "patientRecords",
      "outputs": [
        {
          "internalType": "uint256",
          "name": "",
          "type": "uint256"
        }
      ],
      "stateMutability": "view",
      "type": "function"
    },
    {
      "inputs": [],
      "name": "recordCounter",
      "outputs": [
        {
          "internalType": "uint256",
          "name": "",
          "type": "uint256"
        }
      ],
      "stateMutability": "view",
      "type": "function"
    },
    {
      "inputs": [
        {
          "internalType": "uint256",
          "name": "",
          "type": "uint256"
        }
      ],
      "name": "records",
      "outputs": [
        {
          "internalType": "uint256",
          "name": "id",
          "type": "uint256"
        },
        {
          "internalType": "address",
          "name": "patient",
          "type": "address"
        },
        {
          "internalType": "uint256",
          "name": "hospitalId",
          "type": "uint256"
        },
        {
          "internalType": "string",
          "name": "ipfsHash",
          "type": "string"
        },
        {
          "internalType": "uint256",
          "name": "timestamp",
          "type": "uint256"
        }
      ],
      "stateMutability": "view",
      "type": "function"
    },
    {
      "inputs": [
        {
          "internalType": "string",
          "name": "_name",
          "type": "string"
        },
        {
          "internalType": "uint256",
          "name": "_hospitalId",
          "type": "uint256"
        }
      ],
      "name": "registerDoctor",
      "outputs": [],
      "stateMutability": "nonpayable",
      "type": "function"
    },
    {
      "inputs": [
        {
          "internalType": "string",
          "name": "_name",
          "type": "string"
        }
      ],
      "name": "registerHospital",
      "outputs": [],
      "stateMutability": "nonpayable",
      "type": "function"
    },
    {
      "inputs": [
        {
          "internalType": "string",
          "name": "_name",
          "type": "string"
        },
        {
          "internalType": "uint256",
          "name": "_age",
          "type": "uint256"
        },
        {
          "internalType": "string",
          "name": "_gender",
          "type": "string"
        },
        {
          "internalType": "uint256",
          "name": "_hospitalId",
          "type": "uint256"
        }
      ],
      "name": "registerPatient",
      "outputs": [],
      "stateMutability": "nonpayable",
      "type": "function"
    },
    {
      "inputs": [
        {
          "internalType": "uint256",
          "name": "_recordId",
          "type": "uint256"
        }
      ],
      "name": "requestConsent",
      "outputs": [],
      "stateMutability": "nonpayable",
      "type": "function"
    },
    {
      "inputs": [
        {
          "internalType": "uint256",
          "name": "_recordId",
          "type": "uint256"
        }
      ],
      "name": "requestEmergencyAccess",
      "outputs": [],
      "stateMutability": "nonpayable",
      "type": "function"
    },
    {
      "inputs": [
        {
          "internalType": "uint256",
          "name": "_recordId",
          "type": "uint256"
        },
        {
          "internalType": "address",
          "name": "_doctor",
          "type": "address"
        }
      ],
      "name": "revokeEmergencyAccess",
      "outputs": [],
      "stateMutability": "nonpayable",
      "type": "function"
    },
    {
      "inputs": [
        {
          "internalType": "address",
          "name": "_patient",
          "type": "address"
        },
        {
          "internalType": "string",
          "name": "_ipfsHash",
          "type": "string"
        }
      ],
      "name": "uploadRecord",
      "outputs": [],
      "stateMutability": "nonpayable",
      "type": "function"
    },
    {
      "inputs": [
        {
          "internalType": "address",
          "name": "",
          "type": "address"
        }
      ],
      "name": "users",
      "outputs": [
        {
          "internalType": "string",
          "name": "name",
          "type": "string"
        },
        {
          "internalType": "uint256",
          "name": "age",
          "type": "uint256"
        },
        {
          "internalType": "string",
          "name": "gender",
          "type": "string"
        },
        {
          "internalType": "enum CareChain.Role",
          "name": "role",
          "type": "uint8"
        },
        {
          "internalType": "uint256",
          "name": "hospitalId",
          "type": "uint256"
        },
        {
          "internalType": "bool",
          "name": "registered",
          "type": "bool"
        }
      ],
      "stateMutability": "view",
      "type": "function"
    }
  ],
  "bytecode": "0x608060405234801561001057600080fd5b50613f69806100206000396000f3fe608060405234801561001057600080fd5b506004361061014d5760003560e01c80638bdb00a1116100c3578063be6ff6f71161007c578063be6ff6f71461041e578063cdff7e001461044e578063dddfc45f1461046a578063f0b65d7c14610486578063f38625bf146104a2578063fdcd5829146104d25761014d565b80638bdb00a1146102f657806394f0df6114610326578063a04220d414610356578063a3412dbe14610389578063a87430ba146103b9578063ae9218e5146103ee5761014d565b80633446106711610115578063344610671461021c5780634e0fa410146102505780637599be5d1461026e578063814ecf1a1461028c57806381dc6fd2146102a85780638b20b4ab146102da5761014d565b8063026e09cd1461015257806303e9e6091461016e578063136bd148146101a057806318bd4847146101bc5780632c400296146101ec575b600080fd5b61016c60048036038101906101679190612ae9565b6104ee565b005b61018860048036038101906101839190612b7b565b61093f565b60405161019793929190612c36565b60405180910390f35b6101ba60048036038101906101b59190612c74565b610d6f565b005b6101d660048036038101906101d19190612cd0565b610fc9565b6040516101e39190612dbb565b60405180910390f35b61020660048036038101906102019190612ddd565b611060565b6040516102139190612e38565b60405180910390f35b61023660048036038101906102319190612b7b565b61108f565b604051610247959493929190612e62565b60405180910390f35b61025861116d565b6040516102659190612ebc565b60405180910390f35b610276611173565b6040516102839190612ebc565b60405180910390f35b6102a660048036038101906102a19190612b7b565b611179565b005b6102c260048036038101906102bd9190612b7b565b611580565b6040516102d193929190612ed7565b60405180910390f35b6102f460048036038101906102ef9190612f15565b611652565b005b610310600480360381019061030b9190612f5e565b61190f565b60405161031d9190612ebc565b60405180910390f35b610340600480360381019061033b9190612f5e565b611934565b60405161034d9190612ebc565b60405180910390f35b610370600480360381019061036b9190612f9e565b611965565b6040516103809493929190612fde565b60405180910390f35b6103a3600480360381019061039e9190612ddd565b6119d2565b6040516103b09190612e38565b60405180910390f35b6103d360048036038101906103ce9190612cd0565b611a01565b6040516103e59695949392919061309a565b60405180910390f35b61040860048036038101906104039190612f9e565b611b67565b6040516104159190613109565b60405180910390f35b61043860048036038101906104339190612b7b565b611bb5565b6040516104459190613237565b60405180910390f35b61046860048036038101906104639190612b7b565b611c9b565b005b610484600480360381019061047f9190612ddd565b6120a9565b005b6104a0600480360381019061049b9190613259565b612441565b005b6104bc60048036038101906104b79190612b7b565b612701565b6040516104c991906133a7565b60405180910390f35b6104ec60048036038101906104e79190612ddd565b6127a2565b005b60038081111561050157610500613023565b5b600260003373ffffffffffffffffffffffffffffffffffffffff1673ffffffffffffffffffffffffffffffffffffffff16815260200190815260200160002060030160009054906101000a900460ff16600381111561056357610562613023565b5b146105a3576040517f08c379a000000000000000000000000000000000000000000000000000000000815260040161059a90613415565b60405180910390fd5b600073ffffffffffffffffffffffffffffffffffffffff168273ffffffffffffffffffffffffffffffffffffffff1603610612576040517f08c379a000000000000000000000000000000000000000000000000000000000815260040161060990613481565b60405180910390fd5b6000600260003373ffffffffffffffffffffffffffffffffffffffff1673ffffffffffffffffffffffffffffffffffffffff1681526020019081526020016000206004015490506001600081548092919061066c906134d0565b91905055506040518060a0016040528060015481526020018473ffffffffffffffffffffffffffffffffffffffff168152602001828152602001838152602001428152506004600060015481526020019081526020016000206000820151816000015560208201518160010160006101000a81548173ffffffffffffffffffffffffffffffffffffffff021916908373ffffffffffffffffffffffffffffffffffffffff1602179055506040820151816002015560608201518160030190816107359190613724565b5060808201518160040155905050600560008473ffffffffffffffffffffffffffffffffffffffff1673ffffffffffffffffffffffffffffffffffffffff16815260200190815260200160002060015490806001815401808255809150506001900390600052602060002001600090919091909150558273ffffffffffffffffffffffffffffffffffffffff166001547f0be32d2dacaacf3ff2db18bccf0d693d302ca71512b03977bb8ddee55f6b11ab83856040516107f69291906137f6565b60405180910390a36000805b60066000848152602001908152602001600020805490508110156108be578473ffffffffffffffffffffffffffffffffffffffff1660066000858152602001908152602001600020828154811061085c5761085b613826565b5b9060005260206000200160009054906101000a900473ffffffffffffffffffffffffffffffffffffffff1673ffffffffffffffffffffffffffffffffffffffff16036108ab57600191506108be565b80806108b6906134d0565b915050610802565b50806109395760066000838152602001908152602001600020849080600181540180825580915050600190039060005260206000200160009091909190916101000a81548173ffffffffffffffffffffffffffffffffffffffff021916908373ffffffffffffffffffffffffffffffffffffffff1602179055505b50505050565b60606000806000600460008681526020019081526020016000206040518060a0016040529081600082015481526020016001820160009054906101000a900473ffffffffffffffffffffffffffffffffffffffff1673ffffffffffffffffffffffffffffffffffffffff1673ffffffffffffffffffffffffffffffffffffffff168152602001600282015481526020016003820180546109de90613547565b80601f0160208091040260200160405190810160405280929190818152602001828054610a0a90613547565b8015610a575780601f10610a2c57610100808354040283529160200191610a57565b820191906000526020600020905b815481529060010190602001808311610a3a57829003601f168201915b5050505050815260200160048201548152505090506000816000015103610ab3576040517f08c379a0000000000000000000000000000000000000000000000000000000008152600401610aaa906138a1565b60405180910390fd5b6000816020015173ffffffffffffffffffffffffffffffffffffffff163373ffffffffffffffffffffffffffffffffffffffff1603610af55760019050610d11565b60026003811115610b0957610b08613023565b5b600260003373ffffffffffffffffffffffffffffffffffffffff1673ffffffffffffffffffffffffffffffffffffffff16815260200190815260200160002060030160009054906101000a900460ff166003811115610b6b57610b6a613023565b5b1480610be95750600380811115610b8557610b84613023565b5b600260003373ffffffffffffffffffffffffffffffffffffffff1673ffffffffffffffffffffffffffffffffffffffff16815260200190815260200160002060030160009054906101000a900460ff166003811115610be757610be6613023565b5b145b15610c45578160400151600260003373ffffffffffffffffffffffffffffffffffffffff1673ffffffffffffffffffffffffffffffffffffffff1681526020019081526020016000206004015403610c4057600190505b610d10565b6008600087815260200190815260200160002060003373ffffffffffffffffffffffffffffffffffffffff1673ffffffffffffffffffffffffffffffffffffffff16815260200190815260200160002060009054906101000a900460ff1615610cb15760019050610d0f565b42600960003373ffffffffffffffffffffffffffffffffffffffff1673ffffffffffffffffffffffffffffffffffffffff1681526020019081526020016000206000888152602001908152602001600020541115610d0e57600190505b5b5b5b80610d51576040517f08c379a0000000000000000000000000000000000000000000000000000000008152600401610d4890613933565b60405180910390fd5b81606001518260400151836080015194509450945050509193909250565b600260003373ffffffffffffffffffffffffffffffffffffffff1673ffffffffffffffffffffffffffffffffffffffff16815260200190815260200160002060050160009054906101000a900460ff1615610dff576040517f08c379a0000000000000000000000000000000000000000000000000000000008152600401610df69061399f565b60405180910390fd5b600081118015610e1157506000548111155b610e50576040517f08c379a0000000000000000000000000000000000000000000000000000000008152600401610e4790613a0b565b60405180910390fd5b6040518060c001604052808381526020016000815260200160405180602001604052806000815250815260200160026003811115610e9157610e90613023565b5b815260200182815260200160011515815250600260003373ffffffffffffffffffffffffffffffffffffffff1673ffffffffffffffffffffffffffffffffffffffff1681526020019081526020016000206000820151816000019081610ef79190613724565b50602082015181600101556040820151816002019081610f179190613724565b5060608201518160030160006101000a81548160ff02191690836003811115610f4357610f42613023565b5b02179055506080820151816004015560a08201518160050160006101000a81548160ff0219169083151502179055509050503373ffffffffffffffffffffffffffffffffffffffff167f1f5e33d2573da99a901bca6b2c06d5f12b75dfd179bcbbe46a5216cf8349ee6b8383604051610fbd929190613a2b565b60405180910390a25050565b6060600560008373ffffffffffffffffffffffffffffffffffffffff1673ffffffffffffffffffffffffffffffffffffffff16815260200190815260200160002080548060200260200160405190810160405280929190818152602001828054801561105457602002820191906000526020600020905b815481526020019060010190808311611040575b50505050509050919050565b60086020528160005260406000206020528060005260406000206000915091509054906101000a900460ff1681565b60046020528060005260406000206000915090508060000154908060010160009054906101000a900473ffffffffffffffffffffffffffffffffffffffff16908060020154908060030180546110e490613547565b80601f016020809104026020016040519081016040528092919081815260200182805461111090613547565b801561115d5780601f106111325761010080835404028352916020019161115d565b820191906000526020600020905b81548152906001019060200180831161114057829003601f168201915b5050505050908060040154905085565b60005481565b60015481565b6002600381111561118d5761118c613023565b5b600260003373ffffffffffffffffffffffffffffffffffffffff1673ffffffffffffffffffffffffffffffffffffffff16815260200190815260200160002060030160009054906101000a900460ff1660038111156111ef576111ee613023565b5b1461122f576040517f08c379a000000000000000000000000000000000000000000000000000000000815260040161122690613aa7565b60405180910390fd5b6000600460008381526020019081526020016000206040518060a0016040529081600082015481526020016001820160009054906101000a900473ffffffffffffffffffffffffffffffffffffffff1673ffffffffffffffffffffffffffffffffffffffff1673ffffffffffffffffffffffffffffffffffffffff168152602001600282015481526020016003820180546112c990613547565b80601f01602080910402602001604051908101604052809291908181526020018280546112f590613547565b80156113425780601f1061131757610100808354040283529160200191611342565b820191906000526020600020905b81548152906001019060200180831161132557829003601f168201915b505050505081526020016004820154815250509050600081600001510361139e576040517f08c379a0000000000000000000000000000000000000000000000000000000008152600401611395906138a1565b60405180910390fd5b6008600083815260200190815260200160002060003373ffffffffffffffffffffffffffffffffffffffff1673ffffffffffffffffffffffffffffffffffffffff16815260200190815260200160002060009054906101000a900460ff161561143c576040517f08c379a000000000000000000000000000000000000000000000000000000000815260040161143390613b13565b60405180910390fd5b6000600960003373ffffffffffffffffffffffffffffffffffffffff1673ffffffffffffffffffffffffffffffffffffffff168152602001908152602001600020600084815260200190815260200160002054146114cf576040517f08c379a00000000000000000000000000000000000000000000000000000000081526004016114c690613b7f565b60405180910390fd5b6001600a600084815260200190815260200160002060003373ffffffffffffffffffffffffffffffffffffffff1673ffffffffffffffffffffffffffffffffffffffff16815260200190815260200160002060006101000a81548160ff0219169083151502179055503373ffffffffffffffffffffffffffffffffffffffff16827ff38acc72f3b0627a37b8815ba6ca2f79f66bf46aa4e9498451a43a78eac3a94360405160405180910390a35050565b60036020528060005260406000206000915090508060000154908060010180546115a990613547565b80601f01602080910402602001604051908101604052809291908181526020018280546115d590613547565b80156116225780601f106115f757610100808354040283529160200191611622565b820191906000526020600020905b81548152906001019060200180831161160557829003601f168201915b5050505050908060020160009054906101000a900473ffffffffffffffffffffffffffffffffffffffff16905083565b600260003373ffffffffffffffffffffffffffffffffffffffff1673ffffffffffffffffffffffffffffffffffffffff16815260200190815260200160002060050160009054906101000a900460ff16156116e2576040517f08c379a00000000000000000000000000000000000000000000000000000000081526004016116d99061399f565b60405180910390fd5b6000808154809291906116f4906134d0565b9190505550604051806060016040528060005481526020018281526020013373ffffffffffffffffffffffffffffffffffffffff16815250600360008054815260200190815260200160002060008201518160000155602082015181600101908161175f9190613724565b5060408201518160020160006101000a81548173ffffffffffffffffffffffffffffffffffffffff021916908373ffffffffffffffffffffffffffffffffffffffff1602179055509050506040518060c00160405280828152602001600081526020016040518060200160405280600081525081526020016003808111156117ea576117e9613023565b5b8152602001600054815260200160011515815250600260003373ffffffffffffffffffffffffffffffffffffffff1673ffffffffffffffffffffffffffffffffffffffff16815260200190815260200160002060008201518160000190816118529190613724565b506020820151816001015560408201518160020190816118729190613724565b5060608201518160030160006101000a81548160ff0219169083600381111561189e5761189d613023565b5b02179055506080820151816004015560a08201518160050160006101000a81548160ff0219169083151502179055509050506000547fbc26e9dd83eda23eaacac7e29ea9caabc2e3c1f68d6e6c2cbd7d4b2e5ff5a6f38233604051611904929190613b9f565b60405180910390a250565b6009602052816000526040600020602052806000526040600020600091509150505481565b6005602052816000526040600020818154811061195057600080fd5b90600052602060002001600091509150505481565b6007602052816000526040600020818154811061198157600080fd5b9060005260206000209060040201600091509150508060000160009054906101000a900473ffffffffffffffffffffffffffffffffffffffff16908060010154908060020154908060030154905084565b600a6020528160005260406000206020528060005260406000206000915091509054906101000a900460ff1681565b6002602052806000526040600020600091509050806000018054611a2490613547565b80601f0160208091040260200160405190810160405280929190818152602001828054611a5090613547565b8015611a9d5780601f10611a7257610100808354040283529160200191611a9d565b820191906000526020600020905b815481529060010190602001808311611a8057829003601f168201915b505050505090806001015490806002018054611ab890613547565b80601f0160208091040260200160405190810160405280929190818152602001828054611ae490613547565b8015611b315780601f10611b0657610100808354040283529160200191611b31565b820191906000526020600020905b815481529060010190602001808311611b1457829003601f168201915b5050505050908060030160009054906101000a900460ff16908060040154908060050160009054906101000a900460ff16905086565b60066020528160005260406000208181548110611b8357600080fd5b906000526020600020016000915091509054906101000a900473ffffffffffffffffffffffffffffffffffffffff1681565b606060076000838152602001908152602001600020805480602002602001604051908101604052809291908181526020016000905b82821015611c9057838290600052602060002090600402016040518060800160405290816000820160009054906101000a900473ffffffffffffffffffffffffffffffffffffffff1673ffffffffffffffffffffffffffffffffffffffff1673ffffffffffffffffffffffffffffffffffffffff168152602001600182015481526020016002820154815260200160038201548152505081526020019060010190611bea565b505050509050919050565b60026003811115611caf57611cae613023565b5b600260003373ffffffffffffffffffffffffffffffffffffffff1673ffffffffffffffffffffffffffffffffffffffff16815260200190815260200160002060030160009054906101000a900460ff166003811115611d1157611d10613023565b5b14611d51576040517f08c379a0000000000000000000000000000000000000000000000000000000008152600401611d4890613c41565b60405180910390fd5b6000600460008381526020019081526020016000206040518060a0016040529081600082015481526020016001820160009054906101000a900473ffffffffffffffffffffffffffffffffffffffff1673ffffffffffffffffffffffffffffffffffffffff1673ffffffffffffffffffffffffffffffffffffffff16815260200160028201548152602001600382018054611deb90613547565b80601f0160208091040260200160405190810160405280929190818152602001828054611e1790613547565b8015611e645780601f10611e3957610100808354040283529160200191611e64565b820191906000526020600020905b815481529060010190602001808311611e4757829003601f168201915b5050505050815260200160048201548152505090506000816000015103611ec0576040517f08c379a0000000000000000000000000000000000000000000000000000000008152600401611eb7906138a1565b60405180910390fd5b60006201518042611ed19190613c61565b905080600960003373ffffffffffffffffffffffffffffffffffffffff1673ffffffffffffffffffffffffffffffffffffffff1681526020019081526020016000206000858152602001908152602001600020819055506007600084815260200190815260200160002060405180608001604052803373ffffffffffffffffffffffffffffffffffffffff1681526020018581526020016003815260200142815250908060018154018082558091505060019003906000526020600020906004020160009091909190915060008201518160000160006101000a81548173ffffffffffffffffffffffffffffffffffffffff021916908373ffffffffffffffffffffffffffffffffffffffff1602179055506020820151816001015560408201518160020155606082015181600301555050823373ffffffffffffffffffffffffffffffffffffffff167fb0b91b72bb128ad54bbd4f324b5920f8bea43afd97db0fbd1c555fe3ccd5b75b8360405161204a9190612ebc565b60405180910390a3823373ffffffffffffffffffffffffffffffffffffffff167f268ba1489fdbe899676a65856df95f56e66b0ed2c273da8b6a2aab66b0917fd860034260405161209c929190613cd0565b60405180910390a3505050565b3373ffffffffffffffffffffffffffffffffffffffff166004600084815260200190815260200160002060010160009054906101000a900473ffffffffffffffffffffffffffffffffffffffff1673ffffffffffffffffffffffffffffffffffffffff161461214d576040517f08c379a000000000000000000000000000000000000000000000000000000000815260040161214490613d45565b60405180910390fd5b6002600381111561216157612160613023565b5b600260008373ffffffffffffffffffffffffffffffffffffffff1673ffffffffffffffffffffffffffffffffffffffff16815260200190815260200160002060030160009054906101000a900460ff1660038111156121c3576121c2613023565b5b14612203576040517f08c379a00000000000000000000000000000000000000000000000000000000081526004016121fa90613dd7565b60405180910390fd5b60016008600084815260200190815260200160002060008373ffffffffffffffffffffffffffffffffffffffff1673ffffffffffffffffffffffffffffffffffffffff16815260200190815260200160002060006101000a81548160ff021916908315150217905550600a600083815260200190815260200160002060008273ffffffffffffffffffffffffffffffffffffffff1673ffffffffffffffffffffffffffffffffffffffff16815260200190815260200160002060006101000a81549060ff02191690556007600083815260200190815260200160002060405180608001604052808373ffffffffffffffffffffffffffffffffffffffff1681526020018481526020016002815260200142815250908060018154018082558091505060019003906000526020600020906004020160009091909190915060008201518160000160006101000a81548173ffffffffffffffffffffffffffffffffffffffff021916908373ffffffffffffffffffffffffffffffffffffffff16021790555060208201518160010155604082015181600201556060820151816003015550508073ffffffffffffffffffffffffffffffffffffffff16827ffaff9d6e9dcb1cc023061eb19e57affbea9bc17d7d83f953c2b62eb4af88977e60405160405180910390a3818173ffffffffffffffffffffffffffffffffffffffff167f268ba1489fdbe899676a65856df95f56e66b0ed2c273da8b6a2aab66b0917fd8600242604051612435929190613e32565b60405180910390a35050565b600260003373ffffffffffffffffffffffffffffffffffffffff1673ffffffffffffffffffffffffffffffffffffffff16815260200190815260200160002060050160009054906101000a900460ff16156124d1576040517f08c379a00000000000000000000000000000000000000000000000000000000081526004016124c89061399f565b60405180910390fd5b6000811180156124e357506000548111155b612522576040517f08c379a000000000000000000000000000000000000000000000000000000000815260040161251990613a0b565b60405180910390fd5b6040518060c001604052808581526020018481526020018381526020016001600381111561255357612552613023565b5b815260200182815260200160011515815250600260003373ffffffffffffffffffffffffffffffffffffffff1673ffffffffffffffffffffffffffffffffffffffff16815260200190815260200160002060008201518160000190816125b99190613724565b506020820151816001015560408201518160020190816125d99190613724565b5060608201518160030160006101000a81548160ff0219169083600381111561260557612604613023565b5b02179055506080820151816004015560a08201518160050160006101000a81548160ff02191690831515021790555090505060066000828152602001908152602001600020339080600181540180825580915050600190039060005260206000200160009091909190916101000a81548173ffffffffffffffffffffffffffffffffffffffff021916908373ffffffffffffffffffffffffffffffffffffffff1602179055503373ffffffffffffffffffffffffffffffffffffffff167f096f893428730b9f440cde9930f6fbd450ce2d7ac1f2895f0d869da7376a36d185836040516126f3929190613a2b565b60405180910390a250505050565b60606006600083815260200190815260200160002080548060200260200160405190810160405280929190818152602001828054801561279657602002820191906000526020600020905b8160009054906101000a900473ffffffffffffffffffffffffffffffffffffffff1673ffffffffffffffffffffffffffffffffffffffff168152602001906001019080831161274c575b50505050509050919050565b3373ffffffffffffffffffffffffffffffffffffffff166004600084815260200190815260200160002060010160009054906101000a900473ffffffffffffffffffffffffffffffffffffffff1673ffffffffffffffffffffffffffffffffffffffff1614612846576040517f08c379a000000000000000000000000000000000000000000000000000000000815260040161283d90613ea7565b60405180910390fd5b6000600960008373ffffffffffffffffffffffffffffffffffffffff1673ffffffffffffffffffffffffffffffffffffffff168152602001908152602001600020600084815260200190815260200160002054116128d9576040517f08c379a00000000000000000000000000000000000000000000000000000000081526004016128d090613f13565b60405180910390fd5b600960008273ffffffffffffffffffffffffffffffffffffffff1673ffffffffffffffffffffffffffffffffffffffff1681526020019081526020016000206000838152602001908152602001600020600090555050565b6000604051905090565b600080fd5b600080fd5b600073ffffffffffffffffffffffffffffffffffffffff82169050919050565b600061297082612945565b9050919050565b61298081612965565b811461298b57600080fd5b50565b60008135905061299d81612977565b92915050565b600080fd5b600080fd5b6000601f19601f8301169050919050565b7f4e487b7100000000000000000000000000000000000000000000000000000000600052604160045260246000fd5b6129f6826129ad565b810181811067ffffffffffffffff82111715612a1557612a146129be565b5b80604052505050565b6000612a28612931565b9050612a3482826129ed565b919050565b600067ffffffffffffffff821115612a5457612a536129be565b5b612a5d826129ad565b9050602081019050919050565b82818337600083830152505050565b6000612a8c612a8784612a39565b612a1e565b905082815260208101848484011115612aa857612aa76129a8565b5b612ab3848285612a6a565b509392505050565b600082601f830112612ad057612acf6129a3565b5b8135612ae0848260208601612a79565b91505092915050565b60008060408385031215612b0057612aff61293b565b5b6000612b0e8582860161298e565b925050602083013567ffffffffffffffff811115612b2f57612b2e612940565b5b612b3b85828601612abb565b9150509250929050565b6000819050919050565b612b5881612b45565b8114612b6357600080fd5b50565b600081359050612b7581612b4f565b92915050565b600060208284031215612b9157612b9061293b565b5b6000612b9f84828501612b66565b91505092915050565b600081519050919050565b600082825260208201905092915050565b60005b83811015612be2578082015181840152602081019050612bc7565b60008484015250505050565b6000612bf982612ba8565b612c038185612bb3565b9350612c13818560208601612bc4565b612c1c816129ad565b840191505092915050565b612c3081612b45565b82525050565b60006060820190508181036000830152612c508186612bee565b9050612c5f6020830185612c27565b612c6c6040830184612c27565b949350505050565b60008060408385031215612c8b57612c8a61293b565b5b600083013567ffffffffffffffff811115612ca957612ca8612940565b5b612cb585828601612abb565b9250506020612cc685828601612b66565b9150509250929050565b600060208284031215612ce657612ce561293b565b5b6000612cf48482850161298e565b91505092915050565b600081519050919050565b600082825260208201905092915050565b6000819050602082019050919050565b612d3281612b45565b82525050565b6000612d448383612d29565b60208301905092915050565b6000602082019050919050565b6000612d6882612cfd565b612d728185612d08565b9350612d7d83612d19565b8060005b83811015612dae578151612d958882612d38565b9750612da083612d50565b925050600181019050612d81565b5085935050505092915050565b60006020820190508181036000830152612dd58184612d5d565b905092915050565b60008060408385031215612df457612df361293b565b5b6000612e0285828601612b66565b9250506020612e138582860161298e565b9150509250929050565b60008115159050919050565b612e3281612e1d565b82525050565b6000602082019050612e4d6000830184612e29565b92915050565b612e5c81612965565b82525050565b600060a082019050612e776000830188612c27565b612e846020830187612e53565b612e916040830186612c27565b8181036060830152612ea38185612bee565b9050612eb26080830184612c27565b9695505050505050565b6000602082019050612ed16000830184612c27565b92915050565b6000606082019050612eec6000830186612c27565b8181036020830152612efe8185612bee565b9050612f0d6040830184612e53565b949350505050565b600060208284031215612f2b57612f2a61293b565b5b600082013567ffffffffffffffff811115612f4957612f48612940565b5b612f5584828501612abb565b91505092915050565b60008060408385031215612f7557612f7461293b565b5b6000612f838582860161298e565b9250506020612f9485828601612b66565b9150509250929050565b60008060408385031215612fb557612fb461293b565b5b6000612fc385828601612b66565b9250506020612fd485828601612b66565b9150509250929050565b6000608082019050612ff36000830187612e53565b6130006020830186612c27565b61300d6040830185612c27565b61301a6060830184612c27565b95945050505050565b7f4e487b7100000000000000000000000000000000000000000000000000000000600052602160045260246000fd5b6004811061306357613062613023565b5b50565b600081905061307482613052565b919050565b600061308482613066565b9050919050565b61309481613079565b82525050565b600060c08201905081810360008301526130b48189612bee565b90506130c36020830188612c27565b81810360408301526130d58187612bee565b90506130e4606083018661308b565b6130f16080830185612c27565b6130fe60a0830184612e29565b979650505050505050565b600060208201905061311e6000830184612e53565b92915050565b600081519050919050565b600082825260208201905092915050565b6000819050602082019050919050565b61315981612965565b82525050565b6080820160008201516131756000850182613150565b5060208201516131886020850182612d29565b50604082015161319b6040850182612d29565b5060608201516131ae6060850182612d29565b50505050565b60006131c0838361315f565b60808301905092915050565b6000602082019050919050565b60006131e482613124565b6131ee818561312f565b93506131f983613140565b8060005b8381101561322a57815161321188826131b4565b975061321c836131cc565b9250506001810190506131fd565b5085935050505092915050565b6000602082019050818103600083015261325181846131d9565b905092915050565b600080600080608085870312156132735761327261293b565b5b600085013567ffffffffffffffff81111561329157613290612940565b5b61329d87828801612abb565b94505060206132ae87828801612b66565b935050604085013567ffffffffffffffff8111156132cf576132ce612940565b5b6132db87828801612abb565b92505060606132ec87828801612b66565b91505092959194509250565b600081519050919050565b600082825260208201905092915050565b6000819050602082019050919050565b60006133308383613150565b60208301905092915050565b6000602082019050919050565b6000613354826132f8565b61335e8185613303565b935061336983613314565b8060005b8381101561339a5781516133818882613324565b975061338c8361333c565b92505060018101905061336d565b5085935050505092915050565b600060208201905081810360008301526133c18184613349565b905092915050565b7f4f6e6c7920686f73706974616c2061646d696e00000000000000000000000000600082015250565b60006133ff601383612bb3565b915061340a826133c9565b602082019050919050565b6000602082019050818103600083015261342e816133f2565b9050919050565b7f496e76616c69642070617469656e742061646472657373000000000000000000600082015250565b600061346b601783612bb3565b915061347682613435565b602082019050919050565b6000602082019050818103600083015261349a8161345e565b9050919050565b7f4e487b7100000000000000000000000000000000000000000000000000000000600052601160045260246000fd5b60006134db82612b45565b91507fffffffffffffffffffffffffffffffffffffffffffffffffffffffffffffffff820361350d5761350c6134a1565b5b600182019050919050565b7f4e487b7100000000000000000000000000000000000000000000000000000000600052602260045260246000fd5b6000600282049050600182168061355f57607f821691505b60208210810361357257613571613518565b5b50919050565b60008190508160005260206000209050919050565b60006020601f8301049050919050565b600082821b905092915050565b6000600883026135da7fffffffffffffffffffffffffffffffffffffffffffffffffffffffffffffffff8261359d565b6135e4868361359d565b95508019841693508086168417925050509392505050565b6000819050919050565b600061362161361c61361784612b45565b6135fc565b612b45565b9050919050565b6000819050919050565b61363b83613606565b61364f61364782613628565b8484546135aa565b825550505050565b600090565b613664613657565b61366f818484613632565b505050565b5b818110156136935761368860008261365c565b600181019050613675565b5050565b601f8211156136d8576136a981613578565b6136b28461358d565b810160208510156136c1578190505b6136d56136cd8561358d565b830182613674565b50505b505050565b600082821c905092915050565b60006136fb600019846008026136dd565b1980831691505092915050565b600061371483836136ea565b9150826002028217905092915050565b61372d82612ba8565b67ffffffffffffffff811115613746576137456129be565b5b6137508254613547565b61375b828285613697565b600060209050601f83116001811461378e576000841561377c578287015190505b6137868582613708565b8655506137ee565b601f19841661379c86613578565b60005b828110156137c45784890151825560018201915060208501945060208101905061379f565b868310156137e157848901516137dd601f8916826136ea565b8355505b6001600288020188555050505b505050505050565b600060408201905061380b6000830185612c27565b818103602083015261381d8184612bee565b90509392505050565b7f4e487b7100000000000000000000000000000000000000000000000000000000600052603260045260246000fd5b7f5265636f726420646f6573206e6f742065786973740000000000000000000000600082015250565b600061388b601583612bb3565b915061389682613855565b602082019050919050565b600060208201905081810360008301526138ba8161387e565b9050919050565b7f4e6f7420617574686f72697a656420746f20616363657373207468697320726560008201527f636f726400000000000000000000000000000000000000000000000000000000602082015250565b600061391d602483612bb3565b9150613928826138c1565b604082019050919050565b6000602082019050818103600083015261394c81613910565b9050919050565b7f416c726561647920726567697374657265640000000000000000000000000000600082015250565b6000613989601283612bb3565b915061399482613953565b602082019050919050565b600060208201905081810360008301526139b88161397c565b9050919050565b7f496e76616c696420686f73706974616c20494400000000000000000000000000600082015250565b60006139f5601383612bb3565b9150613a00826139bf565b602082019050919050565b60006020820190508181036000830152613a24816139e8565b9050919050565b60006040820190508181036000830152613a458185612bee565b9050613a546020830184612c27565b9392505050565b7f4f6e6c7920646f63746f72732063616e207265717565737420636f6e73656e74600082015250565b6000613a91602083612bb3565b9150613a9c82613a5b565b602082019050919050565b60006020820190508181036000830152613ac081613a84565b9050919050565b7f436f6e73656e7420616c726561647920676976656e0000000000000000000000600082015250565b6000613afd601583612bb3565b9150613b0882613ac7565b602082019050919050565b60006020820190508181036000830152613b2c81613af0565b9050919050565b7f456d657267656e63792061636365737320616c72656164792061637469766500600082015250565b6000613b69601f83612bb3565b9150613b7482613b33565b602082019050919050565b60006020820190508181036000830152613b9881613b5c565b9050919050565b60006040820190508181036000830152613bb98185612bee565b9050613bc86020830184612e53565b9392505050565b7f4f6e6c7920646f63746f72732063616e207265717565737420656d657267656e60008201527f6379206163636573730000000000000000000000000000000000000000000000602082015250565b6000613c2b602983612bb3565b9150613c3682613bcf565b604082019050919050565b60006020820190508181036000830152613c5a81613c1e565b9050919050565b6000613c6c82612b45565b9150613c7783612b45565b9250828201905080821115613c8f57613c8e6134a1565b5b92915050565b6000819050919050565b6000613cba613cb5613cb084613c95565b6135fc565b612b45565b9050919050565b613cca81613c9f565b82525050565b6000604082019050613ce56000830185613cc1565b613cf26020830184612c27565b9392505050565b7f4f6e6c792070617469656e742063616e206769766520636f6e73656e74000000600082015250565b6000613d2f601d83612bb3565b9150613d3a82613cf9565b602082019050919050565b60006020820190508181036000830152613d5e81613d22565b9050919050565b7f436f6e73656e742063616e206f6e6c7920626520676976656e20746f2061206460008201527f6f63746f72000000000000000000000000000000000000000000000000000000602082015250565b6000613dc1602583612bb3565b9150613dcc82613d65565b604082019050919050565b60006020820190508181036000830152613df081613db4565b9050919050565b6000819050919050565b6000613e1c613e17613e1284613df7565b6135fc565b612b45565b9050919050565b613e2c81613e01565b82525050565b6000604082019050613e476000830185613e23565b613e546020830184612c27565b9392505050565b7f4f6e6c792070617469656e742063616e207265766f6b65000000000000000000600082015250565b6000613e91601783612bb3565b9150613e9c82613e5b565b602082019050919050565b60006020820190508181036000830152613ec081613e84565b9050919050565b7f4e6f2061637469766520656d657267656e637920616363657373000000000000600082015250565b6000613efd601a83612bb3565b9150613f0882613ec7565b602082019050919050565b60006020820190508181036000830152613f2c81613ef0565b905091905056fea2646970667358221220960b9d9c74c670c9cb91e23e042b73352fb6a54ffc285b6f1d959db9e4de3ce564736f6c63430008140033",
  "linkReferences": {},
  "deployedLinkReferences": {}
}